:100000000C94E1050C9409060C9409060C9409065D
:100010000C9409060C9409060C9409060C94090624
:100020000C9409060C9409060C9409060C94090614
:100030000C9409060C9409060C9409060C94090604
:100040000C9436090C9409060C947E080C945808FC
:100050000C9409060C9409060C9409060C940906E4
:100060000C9409060C940906000000080002010027
:100070000003040700000000000000000000000072
:10008000250028002B0000000000240027002A0083
:10009000040404040404040402020202020203032E
:1000A0000303030301020408102040800102040836
:1000B0001020010204081020050800FF0C4B00006E
:1000C0000000003E5B4F5B3E3E6B4F6B3E1C3E7C38
:1000D0003E1C183C7E3C181C577D571C1C5E7F5EE6
:1000E0001C00183C1800FFE7C3E7FF0018241800A5
:1000F000FFE7DBE7FF30483A060E2629792926403C
:100100007F050507407F05253F5A3CE73C5A7F3E67
:100110001C1C08081C1C3E7F14227F22145F5F00F9
:100120005F5F06097F017F006689956A6060606095
:100130006094A2FFA29408047E040810207E201080
:1001400008082A1C08081C2A08081E101010100C89
:100150001E0C1E0C30383E3830060E3E0E060000D7
:1001600000000000005F00000007000700147F147B
:100170007F14242A7F2A12231308646236495620EA
:10018000500008070300001C2241000041221C000F
:100190002A1C7F1C2A08083E0808008070300008CE
:1001A00008080808000060600020100804023E51A2
:1001B00049453E00427F4000724949494621414934
:1001C0004D331814127F1027454545393C4A49499B
:1001D0003141211109073649494936464949291E05
:1001E00000001400000040340000000814224114F4
:1001F00014141414004122140802015909063E4146
:100200005D594E7C1211127C7F494949363E41416D
:1002100041227F4141413E7F494949417F090909C6
:10022000013E414151737F0808087F00417F410032
:100230002040413F017F081422417F404040407FE1
:10024000021C027F7F0408107F3E4141413E7F092E
:100250000909063E4151215E7F091929462649496F
:10026000493203017F01033F4040403F1F204020AF
:100270001F3F4038403F63140814630304780403AD
:100280006159494D43007F4141410204081020005B
:100290004141417F040201020440404040400003CC
:1002A00007080020545478407F2844443838444498
:1002B0004428384444287F385454541800087E0990
:1002C0000218A4A49C787F0804047800447D4000B0
:1002D0002040403D007F1028440000417F40007CCA
:1002E000047804787C080404783844444438FC18C2
:1002F00024241818242418FC7C08040408485454A6
:10030000542404043F44243C4040207C1C204020D2
:100310001C3C4030403C44281028444C9090907C39
:100320004464544C4400083641000000770000004B
:100330004136080002010204023C2623263C1EA18D
:10034000A161123A4040207A3854545559215555EC
:10035000794121545478412155547840205455799D
:10036000400C1E527212395555555939545454592E
:1003700039555454580000457C410002457D4200E7
:1003800001457C40F0292429F0F0282528F07C54F0
:100390005545002054547C547C0A097F4932494910
:1003A00049323248484832324A4848303A4141217D
:1003B0007A3A42402078009DA0A07D3944444439D7
:1003C0003D4040403D3C24FF2424487E4943662B69
:1003D0002FFC2F2BFF0929F620C0887E090320540B
:1003E0005479410000447D413048484A3238404009
:1003F000227A007A0A0A727D0D19317D2629292F69
:1004000028262929292630484D4020380808080880
:1004100008080808382F10C8ACBA2F102834FA0082
:10042000007B000008142A142222142A1408AA00AF
:100430005500AAAA55AA55AA000000FF00101010E6
:10044000FF00141414FF001010FF00FF1010F01034
:10045000F0141414FC001414F700FF0000FF00FF58
:100460001414F404FC141417101F10101F101F1480
:1004700014141F00101010F0000000001F101010C6
:10048000101F10101010F010000000FF10101010BE
:100490001010101010FF10000000FF140000FF00EB
:1004A000FF00001F10170000FC04F41414171017AD
:1004B0001414F404F40000FF00F7141414141414BA
:1004C00014F700F7141414171410101F101F14142D
:1004D00014F4141010F010F000001F101F000000A2
:1004E0001F14000000FC140000F010F01010FF10AA
:1004F000FF141414FF141010101F00000000F0105F
:10050000FFFFFFFFFFF0F0F0F0F0FFFFFF00000043
:100510000000FFFF0F0F0F0F0F38444438447C2AB0
:100520002A3E147E02020606027E027E02635549BE
:1005300041633844443C04407E201E2006027E0273
:100540000299A5E7A5991C2A492A1C4C7201724CF4
:10055000304A4D4D303048784830BC625A463D3EB6
:10056000494949007E0101017E2A2A2A2A2A444457
:100570005F444440514A444040444A51400000FFD7
:100580000103E080FF000008086B6B083612362478
:1005900036060F090F0600001818000000101000A2
:1005A0003040FF0101001F01011E00191D1712003C
:1005B0003C3C3C3C00000000000810206002380079
:1005C00000000000000000000000FE00000000002D
:1005D000000E000E00000000D0BE90D0BE900000C3
:1005E0001C62FFC28000000C12924CB08806008092
:1005F0007C62B21CC0000000000E0E000000000073
:10060000E01804020200000002020418E0000000EA
:1006100024187E18240000808080F08080800000F4
:1006200000000000000000008080808000000000CA
:10063000000000000000000000806018060000F8C4
:1006400004C2320CF80000000404FE0000000000A8
:10065000028242221C00000002222222DC0000C092
:10066000A09884FE808000001E121222C20000F8B2
:1006700044222222C00000000202C2320A06000008
:100680008C5222528C00003C42424226F80000006C
:10069000003030000000000000303000000000801A
:1006A000804040202010004040404040400000106A
:1006B0002020404080800000028242221C00000076
:1006C0000000000000000000000005000000000025
:1006D000000000000000000007000007000000000C
:1006E00004040F04030000040201030404030003D4
:1006F00004040405030400000000000000000000E2
:100700000306081010000000101008060300000087
:1007100000000000000000000000070000000000D2
:1007200000160E00000000000000000000000000A5
:1007300000060600000000040201000000000001A5
:100740000304040201000000040407040400000084
:10075000070404040400000004040404030000006F
:10076000000000070000000004040404030000016E
:100770000204040403000000000700000000000061
:100780000304040403000000040404020100000048
:10079000000606000000000000160E000000000029
:1007A0000001010202040001010101010100000435
:1007B000020201010000000000050000000000F836
:1007C00004728AFA84780000C0380638C00000003D
:1007D000FE222222DC0000F804020202020000FED7
:1007E00002020204F8000000FE2222222200000081
:1007F000FE222222220000F804020222E20000FE71
:1008000020202020FE0000000202FE020200000064
:1008100000000202FE0000FE40B0080402000000DA
:10082000FE000000000000FE0C7080700CFE00FE58
:100830000C30C000FE0000F804020204F80000FEC4
:10084000424242221C0000F804020204F8000000A8
:10085000FE4242A21C0000001C2242428000000214
:100860000202FE02020200FE00000000FE0000067E
:1008700038C000C03806003EC0F00EF0C03E000098
:1008800006986098060000000618E01806000002AE
:1008900002C2320A0600000000FE0202020200004C
:1008A0000618608000000002020202FE0000004004
:1008B000300C0C304000000000000000000000017F
:1008C0000204040400000006010101010106000009
:1008D00007040404030000010204040404000007E8
:1008E00004040402010000000704040404000000E2
:1008F00007000000000000010204040407000007D4
:1009000000000000070000000404070404000000C9
:1009100004040404030000070000010204000000B6
:10092000070404040400000700000100000700079A
:100930000000000307000001020404020100000798
:10094000000000000000000102040C121110000061
:100950000700000106000000040404040300000076
:10096000000007000000000304040404030000006A
:100970000001060100000000070000000700000061
:10098000060100010600000000000700000000064C
:100990000504040404000000001F101010100000E3
:1009A00000000001020400101010101F00000000E1
:1009B0000000000000000008080808080800000007
:1009C0000002040000000000E0101010F000000021
:1009D000FE201010E0000000E010101010000000D9
:1009E000E0101010FE000000E0909090E000000089
:1009F00020FC222222020000E0101010F000000073
:100A0000FE201010E000001010F2000000000000B6
:100A1000101010F200000000FE80402010000000C6
:100A20000202FE00000000F02010F02010F0000094
:100A3000F0201010E0000000E0101010E0000000B6
:100A4000F0201010E0000000E0101010F000000096
:100A5000F0201010700000006090909020000000C6
:100A60002020FC2020200000F0000000F00000000A
:100A700070800080700000F000C030C000F0000006
:100A800030C0C0300000000030C0008070000000A6
:100A9000101090503000000080807E0202000000A4
:100AA0000000FE000000000002027E8080000000C6
:100AB00080800000008000000000000000000000B6
:100AC0000000000000000000030404020700000012
:100AD00007040404030000000304040404000000ED
:100AE00003040402070000000304040404000000DF
:100AF0000007000000000000332424221F00000033
:100B000007000000070000000007040400000020A8
:100B10002020201F00000000070001020400000048
:100B200000000704040000070000070000070000A1
:100B30000700000007000000030404040300000095
:100B40003F04040403000000030404023F0000000B
:100B5000070000000000000002040404030000007D
:100B60000000030404040000030404020700000062
:100B7000000304030000000106010001060100005B
:100B8000060101060000002020310E0300000000D5
:100B9000060504040400000000001F1010000000FF
:100BA000000007000000000010101F0000000001FE
:100BB0000000010101000000000000000000000032
:100BC0004B1011241FBECFEFD8E0DEBFCDBF11E028
:100BD000A0E0B1E0E8E2F6E202C005900D92A83F85
:100BE000B107D9F725E0A8EFB1E001C01D92A6300A
:100BF000B207E1F715E0C1EED5E004C02197FE0190
:100C00000E94F812C03ED107C9F70E9413110C943C
:100C100012130C940000CF92DF92EF92FF920F9389
:100C20001F93CF93DF936C017A018B01C0E0D0E07A
:100C3000CE15DF0589F0D8016D918D01D601ED91BA
:100C4000FC910190F081E02DC6010995892B11F4EA
:100C50007E0102C02196ECCFC701DF91CF911F9199
:100C60000F91FF90EF90DF90CF900895FC01538D8E
:100C7000448D252F30E0842F90E0821B930B541776
:100C800010F0CF96089501970895FC01918D828D03
:100C9000981761F0828DDF01A80FB11D5D968C91D0
:100CA000928D9F5F9F73928F90E008958FEF9FEFDB
:100CB0000895FC01918D828D981731F0828DE80F97
:100CC000F11D858D90E008958FEF9FEF0895FC0151
:100CD000918D228D892F90E0805C9F4F821B91091E
:100CE0008F739927089583EA92E00E94670621E0B6
:100CF000892B09F420E0822F0895FC01848DDF0107
:100D0000A80FB11DA35ABF4F2C91848D90E001967E
:100D10008F739927848FA689B7892C93A089B1896D
:100D20008C9180648C93938D848D981306C0028877
:100D3000F389E02D80818F7D80830895EF92FF926B
:100D40000F931F93CF93DF93EC0181E0888F9B8DEE
:100D50008C8D981305C0E889F989808185FD24C0B0
:100D6000F62E0B8D10E00F5F1F4F0F731127E02E33
:100D70008C8DE8120CC00FB607FCFACFE889F98910
:100D8000808185FFF5CFCE010E947D06F1CF8B8D4E
:100D9000FE01E80FF11DE35AFF4FF0820B8FEA8945
:100DA000FB898081806207C0EE89FF896083E889C2
:100DB000F98980818064808381E090E0DF91CF9128
:100DC0001F910F91FF90EF900895CF93DF93EC0167
:100DD000888D8823C9F0EA89FB89808185FD05C05B
:100DE000A889B9898C9186FD0FC00FB607FCF5CF95
:100DF000808185FFF2CFA889B9898C9185FFEDCFDD
:100E0000CE010E947D06E7CFDF91CF91089580E06B
:100E100090E0892B29F00E94730681110C94000048
:100E200008953FB7F89480911D0290911E02A09101
:100E30001F02B091200226B5A89B05C02F3F19F0D4
:100E40000196A11DB11D3FBFBA2FA92F982F88274A
:100E5000820F911DA11DB11DBC01CD0142E0660FA5
:100E6000771F881F991F4A95D1F70895CF92DF9277
:100E7000EF920F93CF93C0E080E090E0FC01ED5D36
:100E8000FD4F10821182029680389105B9F780E8F3
:100E9000C82ED12C9FE5E92E0FE320E24C2F63E210
:100EA00072E08BEB93E00E94CA0CCF5FC03421F755
:100EB000CF910F91EF90DF90CF900895AF92BF92B6
:100EC000CF92DF92EF92FF920F93CF93DF93EC01DB
:100ED000062FE88DF98D2E854D8530E050E0309756
:100EE00029F488EF91E00E94B30A03C08E899F899C
:100EF00009955C01EC8DFD8D3097A9F48091FC0182
:100F0000809314028091FA01809315028091080267
:100F100080931602809107028093170294E1E92ED4
:100F200092E0F92E09C02E8530E04D8550E0602F0B
:100F30008E899F8909957C01EE8DFF8D2E854D85CB
:100F400030E050E0602F309729F488EF91E00E9464
:100F50005E0A03C08E899F890995A114B104D1F05E
:100F6000E114F104B9F0882391F0F7014081218167
:100F70000281E3800E9D60011124CC0CDD1CE20E89
:100F8000EA94040F0150B501CE010E94CA0C81E021
:100F900090E000C0DF91CF910F91FF90EF90DF9034
:100FA000CF90BF90AF9008950E940D136115710509
:100FB00079F0FB0101900020E9F73197AF01461B62
:100FC000570BDC01ED91FC910280F381E02D099437
:100FD00080E090E008950F931F93CF93DF93EC018F
:100FE0000E94D6078C016BE771E0CE010E94D60704
:100FF000800F911FDF91CF911F910F910895CF9294
:10100000DF92EF92FF920F931F93DC0180E25096E4
:101010008C93509751961C92519752968C9352975D
:1010200053961C9253978FE554968C9354978FE365
:1010300055968C9355979096ED91FC9191978FE3EF
:10104000C82ED12C9FE5E92EF12C00E010E020E223
:1010500030E040E050E060E270E056968D919C9167
:10106000579709951F910F91FF90EF90DF90CF90C8
:10107000089590E0FC01EC55FF4F2491FC01E057EE
:10108000FF4F8491882399F090E0880F991FFC010D
:10109000EA57FF4FA591B491FC01E458FF4F8591A9
:1010A00094918FB7F894EC91E22BEC938FBF089555
:1010B0001F920F920FB60F9211242F933F934F93CD
:1010C0005F936F937F938F939F93AF93BF93EF93B0
:1010D000FF9383EA92E00E947D06FF91EF91BF911A
:1010E000AF919F918F917F916F915F914F913F91C0
:1010F0002F910F900FBE0F901F9018951F920F9277
:101100000FB60F9211242F938F939F93EF93FF931A
:10111000E091B302F091B4028081E091B902F091C4
:10112000BA0282FD12C090818091BC028F5F8F73E2
:101130002091BD02821751F0E091BC02F0E0ED5524
:10114000FD4F958F8093BC0201C08081FF91EF918C
:101150009F918F912F910F900FBE0F901F90189518
:1011600090E0FC01E859FF4F3491FC01EC55FF4F32
:101170002491FC01E057FF4FE491EE2309F43BC0BA
:10118000332339F1333091F038F43130A9F0323073
:1011900001F584B58F7D12C0373091F03830A1F061
:1011A0003430B9F4809180008F7D03C0809180003D
:1011B0008F77809380000DC084B58F7784BD09C080
:1011C0008091B0008F7703C08091B0008F7D8093B5
:1011D000B000F0E0EE0FFF1FE458FF4FA591B4916F
:1011E0008FB7F894EC91611103C020952E2301C0B4
:1011F0002E2B2C938FBF08958F929F92AF92BF9208
:10120000CF92DF92EF92FF926B017C010E94110757
:101210004B015C01C114D104E104F104F1F00E941E
:101220001107DC01CB0188199909AA09BB09883E7D
:101230009340A105B10570F321E0C21AD108E1087D
:10124000F10888EE880E83E0981EA11CB11CC11421
:10125000D104E104F10419F7DDCFFF90EF90DF90A6
:10126000CF90BF90AF909F908F9008951F920F9254
:101270000FB60F9211242F933F938F939F93AF93A9
:10128000BF938091190290911A02A0911B02B09114
:101290001C023091180223E0230F2D3720F4019611
:1012A000A11DB11D05C026E8230F0296A11DB11D89
:1012B000209318028093190290931A02A0931B02A4
:1012C000B0931C0280911D0290911E02A0911F02FA
:1012D000B09120020196A11DB11D80931D02909333
:1012E0001E02A0931F02B0932002BF91AF919F9165
:1012F0008F913F912F910F900FBE0F901F901895D7
:10130000CF92DF92EF92FF920F931F93CF93DF93D1
:1013100000D0CDB7DEB78C016B017901642FFC01E1
:1013200084810E94B008EFE0F0E03197F1F7F80116
:1013300041855285638574850CE021E0CE010196DC
:101340000E94300D89819A810E942D0DE114F104D3
:1013500021F0B701C6010E940E0D0E942C0D0F90C6
:101360000F90DF91CF911F910F91FF90EF90DF9041
:10137000CF9008950F931F93CF93DF9300D01F92C8
:10138000CDB7DEB78C0185E789836A834B83C801BB
:101390000E94C50C21E030E040E0BE016F5F7F4F4E
:1013A000C8010E94800922E030E041E0BE016E5F8A
:1013B0007F4FC8010E948009C8010E94C00C0F9095
:1013C0000F900F90DF91CF911F910F9108950F9380
:1013D0001F93CF93DF9300D01F92CDB7DEB78C0160
:1013E00085E189836A834B83C8010E94C50C21E093
:1013F00030E040E0BE016F5F7F4FC8010E9480096E
:1014000022E030E041E0BE016E5F7F4FC8010E94E4
:101410008009C8010E94C00C0F900F900F90DF91BF
:10142000CF911F910F910895DC01ED91FC910190F6
:10143000F081E02D0994DC01ED91FC910280F381B3
:10144000E02D0994DC01ED91FC910480F581E02D03
:101450000994DC01ED91FC910680F781E02D09945F
:10146000CF92DF92EF92FF920F931F93DC01ED91E9
:10147000FC910084F185E02D09951F910F91FF905B
:10148000EF90DF90CF900895CF92DF92EF92FF928E
:101490000F931F93FC017383628355834483F78208
:1014A000E682D186C08633872287158704871F91FD
:1014B0000F91FF90EF90DF90CF900895FC01828113
:1014C0009381248135816A3089F48685811134C005
:1014D0002F5F3F4F9089290F311D428553855383DC
:1014E00042833583248391E09687089516866D3074
:1014F00019F1478550E00196840F951F6681778129
:10150000DB01A41BB50BA817B907C0F4828593852E
:10151000408950E02F5F3F4F240F351F61E0668701
:1015200060857185DB01A41BB50BA217B30730F4EE
:10153000938382833583248380E008959383828319
:101540003583248381E00895FC018481848F828126
:10155000858F8089868F8785878FCF014C960895E8
:1015600080E090E008952F923F924F925F926F92A9
:101570007F928F929F92AF92BF92CF92DF92EF9223
:10158000FF920F931F93CF93DF93CDB7DEB72F97C3
:101590000FB6F894DEBF0FBECDBF9F878E87DC01EC
:1015A00051968C915197F62EF81A50968C9190E0A6
:1015B0006C01B1E0CB1AD108D7FE04C06C01E6E0A3
:1015C000CE0ED11C13E0D594C7941A95E1F7C394BD
:1015D000AE85BF851F962C911F9730E040E050E00C
:1015E00054966D917D918D919C9157970E94CB124D
:1015F00049015A0101E010E04F2C512C612C712C53
:101600004A865B866C867D86D12CE12CF12C1801F4
:10161000B1E02B1A3108EE85FF85F785F9834F2E4F
:10162000512C58864F82AE85BF8550968C9150972D
:10163000F89FC0011124880F991F2816390608F059
:101640009CC06F817885660F771FC1010E94B71219
:101650007E836D835D8056945694569459866A8530
:101660007B858C859D85A50194010E94CB12290163
:101670003A019B01AC018981A82FB0E00E94ED12D4
:10168000EE85FF85A3899B01AC012A0F311D411D09
:10169000511D29833A834B835C83A7019601C301C3
:1016A000B2010E94A7129B01AC014984240D311D97
:1016B000411D511D64897589868997890E94A712E9
:1016C00049805A806B807C80460E571E681E791EAA
:1016D000B301A2012D813E81332731952195310936
:1016E000220F331F6F807884269DC001279D900DA7
:1016F000369D900D1124820D931D96958795480F68
:10170000511D611D711D808D918DFC01E40FF51F30
:10171000E491F0E08D81798428EF729E800D112490
:1017200002C0F595E7958A95E2F7AE85BF855A9692
:101730008D919C915B97E0FF10C0FC01E20DF31DC1
:10174000BFEFB083AE85BF855A96ED91FC915B9754
:10175000E00FF11FBFEFB0830DC0FC01E20DF31DE0
:101760001082AE85BF855A96ED91FC915B97E00F94
:10177000F11F10820E5F1F4F4ACF5A968D919C9198
:101780005B972F960FB6F894DEBF0FBECDBFDF91EB
:10179000CF911F910F91FF90EF90DF90CF90BF906E
:1017A000AF909F908F907F906F905F904F903F9001
:1017B0002F900895089580E090E00895CF92DF92F1
:1017C000EF92FF920F931F93DC01ED91FC91008447
:1017D000F185E02D09951F910F91FF90EF90DF901B
:1017E000CF900895DC01ED91FC910680F781E02D0A
:1017F0000994DC01ED91FC910480F581E02D0994C0
:10180000DC01ED91FC910280F381E02D0994DC0173
:10181000ED91FC910190F081E02D0994FC01828111
:101820009381248135816A3071F4868581112DC0C0
:1018300042855385538342832B5F3F4F35832483F7
:1018400091E0968708956D3001F1049646815781A5
:10185000435051094817590790F4828593852B5FAF
:101860003F4F41E04687408551854450510942171A
:10187000530728F4938382833583248306C093839C
:1018800082833583248381E0089580E00895FC01FC
:10189000848187A3828180A784E081A783E082A7D7
:1018A000CF018796089580E090E00895BF92CF928F
:1018B000DF92EF92FF920F931F93CF93DF937C0100
:1018C000EC016096E0E0F0E040E096E0C92ED12C1B
:1018D000062F10E0BB24BA94CF01B6010E94B712C4
:1018E0005AEF56039001579F300D11242E0F3F1FC2
:1018F00036952795223010F44F5F02C0223081F0D8
:10190000DE011197C801042E02C0959587950A94AF
:10191000E2F780FF03C0BC92B88202C01C9218821A
:1019200032962296E831F105B9F6C7010F96DF919C
:10193000CF911F910F91FF90EF90DF90CF90BF90CC
:101940000895CF93DF93EC0164E170E080E090E0D4
:101950000E94FC0860E08D810E94B00865E070E0A4
:1019600080E090E00E94FC0861E08D810E94B00858
:1019700068EC70E080E090E0DF91CF910C94FC087F
:1019800061E0FC0186810C94B00860E0FC01868176
:101990000C94B0088F929F92AF92BF92CF92DF9239
:1019A000EF920F93CF93DF9300D0CDB7DEB75C01FA
:1019B0004B01642F402F2A830E94BA094E2D2A81A1
:1019C000622FC5010E94E7098CE58983C5010E9449
:1019D000C50C21E030E040E0BE016F5F7F4FC501E4
:1019E0000E948009C5010E94C00CC5010E94C50C5F
:1019F000960141E0B401C5010E948009C5010E9421
:101A0000C00C0F900F90DF91CF910F91EF90DF906E
:101A1000CF90BF90AF909F908F900895FC01208150
:101A20002EBDDC0131969C01260F371FE217F3070C
:101A300041F051910DB407FEFDCF4EB55EBD4D9303
:101A4000F5CF61507109FC01E60FF71F0DB407FED9
:101A5000FDCF8EB58083089508958CBD9DBD0895FA
:101A60000F93FC0130E080E092E1AAE7B0E0481774
:101A700059076A077B0740F4B695A7959795879510
:101A80003F5F3630A1F737E091E09327222311F032
:101A900020E501C020E7892F86950C70082B022BCA
:101AA0000083917091830F910895AF92BF92CF926E
:101AB000DF92EF92FF920F931F93CF93DF9300D0AB
:101AC000CDB7DEB75C01822FD50114966C931497C5
:101AD00015964C93159716962C93169718961C935B
:101AE0000E931797F501C186D286E386F486E8EF58
:101AF000F1E05796FC93EE93569724E13AE059961D
:101B00003C932E9358972BE13AE05B963C932E93AF
:101B10005A9722E23AE05D963C932E935C9729E235
:101B20003AE05F963C932E935E9720E33AE09196DD
:101B30003C932E93909713821282158214822FE782
:101B400030E03783268331872087138612861586F7
:101B500014860E943908F50185810E943908D50153
:101B600014968C910E94390861E0F50186810E94EB
:101B7000B00861E0D50115968C910E94B00861E033
:101B8000F50184810E94B008D50119964D915D91AF
:101B90006D917C911C970CE021E0CE0101960E9492
:101BA000300D89819A810E942D0D61E070E0CE0197
:101BB00001960E940E0DC5010E94A10C0F900F907E
:101BC000DF91CF911F910F91FF90EF90DF90CF9019
:101BD000BF90AF900895AF92BF92CF92DF92EF92F5
:101BE000FF920F931F93CF93DF93CDB7DEB7C2540D
:101BF000D1090FB6F894DEBF0FBECDBF5C01822FB6
:101C0000D50114966C93149715964C9315971696C8
:101C10002C93169718961C930E931797F501C1866F
:101C2000D286E386F486E8EFF1E05796FC93EE93D4
:101C3000569724E13AE059963C932E9358972BE11E
:101C40003AE05B963C932E935A9722E23AE05D96F7
:101C50003C932E935C9729E23AE05F963C932E9357
:101C60005E9720E33AE091963C932E9390971382EF
:101C70001282158214822FE730E037832683318762
:101C8000208713861286158614860E943908F5016E
:101C900085810E943908D50114968C910E943908DB
:101CA00061E0F50186810E94B00861E0D5011596DA
:101CB0008C910E94B00861E0F50184810E94B00817
:101CC000D50119964D915D916D917C911C970CE019
:101CD00021E0CE0101960E94300D89819A810E94F7
:101CE0002D0D61E070E0CE018E5B9F4F0E940E0DC6
:101CF000C5010E94A10C8DEF898382E18A83C50111
:101D00000E94C50C21E030E040E0BE016F5F7F4FD4
:101D1000C5010E94800921E030E041E0BE016E5F14
:101D20007F4FC5010E948009C5010E94C00C8EEA48
:101D30008983C5010E94C50C21E030E040E0BE016E
:101D40006F5F7F4FC5010E948009C5010E94C00CD2
:101D500083EB898380EB8A83C5010E94C50C21E057
:101D600030E040E0BE016F5F7F4FC5010E948009F7
:101D700021E030E041E0BE016E5F7F4FC5010E946F
:101D80008009C5010E94C00C8AEC89838FE38A8395
:101D9000C5010E94C50C21E030E040E0BE016F5F4C
:101DA0007F4FC5010E94800921E030E041E0BE0183
:101DB0006E5F7F4FC5010E948009C5010E94C00C63
:101DC00082EA898310E41A83C5010E94C50C21E0D0
:101DD00030E040E0BE016F5F7F4FC5010E94800987
:101DE00021E030E041E0BE016E5F7F4FC5010E94FF
:101DF0008009C5010E94C00C81EA89831A82C5014D
:101E00000E94C50C21E030E040E0BE016F5F7F4FD3
:101E1000C5010E94800921E030E041E0BE016E5F13
:101E20007F4FC5010E948009C5010E94C00C80EA55
:101E300089831B8286E78A8301E0F5010787C50154
:101E40000E94C50C21E030E040E0BE016F5F7F4F93
:101E5000C5010E94800922E030E041E0BE016E5FD2
:101E60007F4FC5010E948009C5010E94C00CD501A9
:101E700098960C9381EC898388E88A8302E30B832C
:101E80008C83C5010E94C50C21E030E040E0BE011A
:101E90006F5F7F4FC5010E94800923E030E041E081
:101EA000BE016E5F7F4FC5010E948009C5010E947F
:101EB000C00C87EC89838FE08A83C5010E94C50C22
:101EC00021E030E040E0BE016F5F7F4FC5010E941E
:101ED000800921E030E041E0BE016E5F7F4FC50127
:101EE0000E948009C5010E94C00C81EB89830A838E
:101EF000C5010E94C50C21E030E040E0BE016F5FEB
:101F00007F4FC5010E94800921E030E041E0BE0121
:101F10006E5F7F4FC5010E948009C5010E94C00C01
:101F20008FE3ECE3F1E0DE01119601900D928A95CA
:101F3000E1F788EB21968FAF2197C5010E94C50C70
:101F400021E030E040E0BE01605C7F4FC5010E94AF
:101F500080092FE330E041E0BE016F5F7F4FC50194
:101F60000E948009C5010E94C00C8BEB21968FAFA7
:101F7000219787E122968FAF2297C5010E94C50C59
:101F800021E030E040E0BE01605C7F4FC5010E946F
:101F9000800980E4E82EF12CEC0EFD1EBFEFEB1A59
:101FA000FB0A21E030E041E0B701C5010E94800951
:101FB000C5010E94C00C8EEB21968FAF219785E062
:101FC00022968FAF2297C5010E94C50C21E030E018
:101FD00040E0BE01605C7F4FC5010E94800921E0A6
:101FE00030E041E0B701C5010E948009C5010E94AF
:101FF000C00C4FE560E2C5010E94E7094FE360E0D5
:10200000C5010E94BA0986EA21968FAF2197C501C2
:102010000E94C50C21E030E040E0BE01605C7F4FD3
:10202000C5010E948009C5010E94C00C8FEA21965B
:102030008FAF2197C5010E94C50C21E030E040E040
:10204000BE01605C7F4FC5010E948009C5010E94EE
:10205000C00C68EC70E080E090E00E94FC08C501D4
:102060000E94FF07F501158716878FEF9FEF92A754
:1020700081A7CE5BDF4F0FB6F894DEBF0FBECDBF9A
:10208000DF91CF911F910F91FF90EF90DF90CF9054
:10209000BF90AF900895E3EAF2E01382128288EED7
:1020A00093E0A0E0B0E084839583A683B78384E0C7
:1020B00091E09183808385EC90E09587848784EC20
:1020C00090E09787868780EC90E0918B808B81EC05
:1020D00090E0938B828B82EC90E0958B848B86ECE6
:1020E00090E0978B868B118E128E138E148EA8EF34
:1020F000B1E082E391E011969C938E93E8EBF0E0DF
:102100005996FC93EE93589720E433E05B963C930A
:102110002E935A9736E053963C9353971E961C92F3
:102120001E97E4911F96EC931F97E9EBF0E0E49182
:102130005096EC935097EAEBF0E0E4915196EC93D3
:102140005197EBEBF0E0E4915296EC935297ECEB65
:10215000F0E02491EDEBF0E0E4914E2F50E0FA0135
:1021600064E6269FE00DF11D1124AF01FF0F660B01
:10217000770B54964D935D936D937C935797A6EE92
:10218000B4E011969C938E93E9EBF5E05996FC939D
:10219000EE93589786EE93E05B969C938E935A97B6
:1021A00053963C9353971E961C921E97E4911F964C
:1021B000EC931F97EAEBF5E0E4915096EC9350977F
:1021C000EBEBF5E0E4915196EC935197ECEBF5E0F5
:1021D000E4915296EC935297EDEBF5E08491EEEB9F
:1021E000F5E0E4914E2F50E0FA0194E6899FE00D6E
:1021F000F11D1124AF01FF0F660B770B54964D9321
:102200005D936D937C935797EBEBF3E0138212820F
:1022100084E291E09183808386E191E09093910341
:10222000809390030895789484B5826084BD84B5CA
:10223000816084BD85B5826085BD85B5816085BDC1
:1022400080916E00816080936E0010928100809179
:102250008100826080938100809181008160809301
:102260008100809180008160809380008091B10026
:1022700084608093B1008091B00081608093B00051
:1022800080917A00846080937A0080917A008260E5
:1022900080937A0080917A00816080937A008091A7
:1022A0007A00806880937A001092C100E091B302B6
:1022B000F091B40282E08083E091AF02F091B0022D
:1022C0001082E091B102F091B2028FEC8083109203
:1022D000BB02E091B702F091B80286E08083E09102
:1022E000B502F091B602808180618083E091B502F1
:1022F000F091B602808188608083E091B502F09110
:10230000B602808180688083E091B502F091B602C8
:1023100080818F7D8083CFB7F894809121028111D5
:1023200024C0EAE9F0E08491EEEAF0E09491E82F2D
:10233000F0E0EE0FFF1FEA57FF4FA591B491EC912B
:10234000E92321F461E08AE00E94B0088AE00E945B
:1023500039088CB580618CBD8CB580648CBD8DE0F6
:102360000E9439088BE00E943908809121028F5F1A
:1023700080932102CFBF80E8C82E84E8D82E8EE15A
:10238000E82EF12C02E212E024E042E063E08BEB65
:1023900093E00E94EB0D0E94360798EF692E91E0C2
:1023A000792E24E1A22E2AE0B22E3BE1C32E3AE0A0
:1023B000D32E42E2E42E4AE0F42E09E21AE0C0E312
:1023C000DAE05FE7852E912C66EE462E64E0562E0D
:1023D00070E9272E73E0372E6EE771E083EA92E012
:1023E0000E94EB077092D2036092D103B092D403A3
:1023F000A092D303D092D603C092D503F092D80313
:10240000E092D7031093DA030093D903D093DC034F
:10241000C093DB031092FB011092FA011092FD01B0
:102420001092FC019092FF018092FE0190920102B5
:102430008092000210920302109202021092050292
:10244000109204028BEB93E00E94FF0764EA71E0B4
:102450008BEB93E00E94EB0768EE73E080E090E086
:102460000E94FC080E94360761EB71E083EA92E06B
:102470000E94EB075092D2034092D103B092D40352
:10248000A092D303D092D603C092D503F092D80382
:10249000E092D7031093DA030093D903D093DC03BF
:1024A000C093DB038BEB93E00E94FF0764EA71E0CB
:1024B0008BEB93E00E94EB0768EE73E080E090E026
:1024C0000E94FC080E94360764ED71E083EA92E006
:1024D0000E94EB076BE771E083EA92E00E94D60767
:1024E0003092D2032092D10387E09CE09093D403F2
:1024F0008093D30380E09CE09093D6038093D50330
:1025000089EF9BE09093D8038093D70382EF9BE001
:102510009093DA038093D9038EED9BE09093DC03D4
:102520008093DB038BEB93E00E94FF0764EA71E08A
:102530008BEB93E00E94EB0768EE73E080E090E0A5
:102540000E94FC080E9436070E94070745CFDB0166
:102550008F939F930E94ED12BF91AF91A29F800D28
:10256000911DA39F900DB29F900D11240895AA1B59
:10257000BB1B51E107C0AA1FBB1FA617B70710F06E
:10258000A61BB70B881F991F5A95A9F780959095A0
:10259000BC01CD010895A1E21A2EAA1BBB1BFD01AF
:1025A0000DC0AA1FBB1FEE1FFF1FA217B307E40732
:1025B000F50720F0A21BB30BE40BF50B661F771F8A
:1025C000881F991F1A9469F760957095809590956A
:1025D0009B01AC01BD01CF0108950E94FE12A59F91
:1025E000900DB49F900DA49F800D911D112408950E
:1025F000EE0FFF1F0590F491E02D0994A29FB0010A
:10260000B39FC001A39F700D811D1124911DB29F26
:10261000700D811D1124911D089581E090E0F894C2
:082620000C941213F894FFCF93
:10262800000000009E060B063606E506670645060E
:10263800590600000000560C530C470C0E0C440AB7
:10264800000000005E070B06DB0BDA0BEB0D000049
:102658000000B30AB00AA40A5E0A440A0203040589
:10266800060708090A0B0C0D0E0F10111213151787
:10267800191B1D1F212325272A2D303336393C3FAE
:102688004245484C5054585C6064686C7074787D5E
:1026980082878C91969BA0A5AAAFB40D0A005072B0
:1026A800696E74696E6720746F20646973706C61F9
:1026B8007920776974682064656661756C74206632
:1026C8006F6E740048656C6C6F20776F726C642154
:1026D800005072696E74696E6720746F2064697344
:1026E800706C617920776974682038783136206693
:1026F8006F6E74005072696E74696E6720746F2013
:10270800646973706C6179207769746820515263C9
:082718006F6465466F6E7400EA
:107E0000112484B714BE81FFF0D085E080938100F7
:107E100082E08093C00088E18093C10086E0809377
:107E2000C20080E18093C4008EE0C9D0259A86E02C
:107E300020E33CEF91E0309385002093840096BBD3
:107E4000B09BFECF1D9AA8958150A9F7CC24DD24C4
:107E500088248394B5E0AB2EA1E19A2EF3E0BF2EE7
:107E6000A2D0813461F49FD0082FAFD0023811F036
:107E7000013811F484E001C083E08DD089C08234E0
:107E800011F484E103C0853419F485E0A6D080C0E4
:107E9000853579F488D0E82EFF2485D0082F10E0AE
:107EA000102F00270E291F29000F111F8ED06801E7
:107EB0006FC0863521F484E090D080E0DECF843638
:107EC00009F040C070D06FD0082F6DD080E0C81688
:107ED00080E7D80618F4F601B7BEE895C0E0D1E017
:107EE00062D089930C17E1F7F0E0CF16F0E7DF06D8
:107EF00018F0F601B7BEE89568D007B600FCFDCFD4
:107F0000A601A0E0B1E02C9130E011968C91119780
:107F100090E0982F8827822B932B1296FA010C0160
:107F200087BEE89511244E5F5F4FF1E0A038BF0790
:107F300051F7F601A7BEE89507B600FCFDCF97BE46
:107F4000E89526C08437B1F42ED02DD0F82E2BD052
:107F50003CD0F601EF2C8F010F5F1F4F84911BD097
:107F6000EA94F801C1F70894C11CD11CFA94CF0C13
:107F7000D11C0EC0853739F428D08EE10CD085E9AC
:107F80000AD08FE07ACF813511F488E018D01DD067
:107F900080E101D065CF982F8091C00085FFFCCF94
:107FA0009093C60008958091C00087FFFCCF809118
:107FB000C00084FD01C0A8958091C6000895E0E648
:107FC000F0E098E1908380830895EDDF803219F02E
:107FD00088E0F5DFFFCF84E1DECF1F93182FE3DFCA
:107FE0001150E9F7F2DF1F91089580E0E8DFEE27F6
:047FF000FF270994CA
:027FFE00040479
:0400000300007E007B
:00000001FF
