:100000000C94E1050C9409060C9409060C9409065D
:100010000C9409060C9409060C9409060C94090624
:100020000C9409060C9409060C9409060C94090614
:100030000C9409060C9409060C9409060C94090604
:100040000C94A70F0C9409060C94EF0E0C94C90E97
:100050000C9409060C9409060C9409060C940906E4
:100060000C9409060C940906000000080002010027
:100070000003040700000000000000000000000072
:10008000250028002B0000000000240027002A0083
:10009000040404040404040402020202020203032E
:1000A0000303030301020408102040800102040836
:1000B0001020010204081020050800FF0C4B00006E
:1000C0000000003E5B4F5B3E3E6B4F6B3E1C3E7C38
:1000D0003E1C183C7E3C181C577D571C1C5E7F5EE6
:1000E0001C00183C1800FFE7C3E7FF0018241800A5
:1000F000FFE7DBE7FF30483A060E2629792926403C
:100100007F050507407F05253F5A3CE73C5A7F3E67
:100110001C1C08081C1C3E7F14227F22145F5F00F9
:100120005F5F06097F017F006689956A6060606095
:100130006094A2FFA29408047E040810207E201080
:1001400008082A1C08081C2A08081E101010100C89
:100150001E0C1E0C30383E3830060E3E0E060000D7
:1001600000000000005F00000007000700147F147B
:100170007F14242A7F2A12231308646236495620EA
:10018000500008070300001C2241000041221C000F
:100190002A1C7F1C2A08083E0808008070300008CE
:1001A00008080808000060600020100804023E51A2
:1001B00049453E00427F4000724949494621414934
:1001C0004D331814127F1027454545393C4A49499B
:1001D0003141211109073649494936464949291E05
:1001E00000001400000040340000000814224114F4
:1001F00014141414004122140802015909063E4146
:100200005D594E7C1211127C7F494949363E41416D
:1002100041227F4141413E7F494949417F090909C6
:10022000013E414151737F0808087F00417F410032
:100230002040413F017F081422417F404040407FE1
:10024000021C027F7F0408107F3E4141413E7F092E
:100250000909063E4151215E7F091929462649496F
:10026000493203017F01033F4040403F1F204020AF
:100270001F3F4038403F63140814630304780403AD
:100280006159494D43007F4141410204081020005B
:100290004141417F040201020440404040400003CC
:1002A00007080020545478407F2844443838444498
:1002B0004428384444287F385454541800087E0990
:1002C0000218A4A49C787F0804047800447D4000B0
:1002D0002040403D007F1028440000417F40007CCA
:1002E000047804787C080404783844444438FC18C2
:1002F00024241818242418FC7C08040408485454A6
:10030000542404043F44243C4040207C1C204020D2
:100310001C3C4030403C44281028444C9090907C39
:100320004464544C4400083641000000770000004B
:100330004136080002010204023C2623263C1EA18D
:10034000A161123A4040207A3854545559215555EC
:10035000794121545478412155547840205455799D
:10036000400C1E527212395555555939545454592E
:1003700039555454580000457C410002457D4200E7
:1003800001457C40F0292429F0F0282528F07C54F0
:100390005545002054547C547C0A097F4932494910
:1003A00049323248484832324A4848303A4141217D
:1003B0007A3A42402078009DA0A07D3944444439D7
:1003C0003D4040403D3C24FF2424487E4943662B69
:1003D0002FFC2F2BFF0929F620C0887E090320540B
:1003E0005479410000447D413048484A3238404009
:1003F000227A007A0A0A727D0D19317D2629292F69
:1004000028262929292630484D4020380808080880
:1004100008080808382F10C8ACBA2F102834FA0082
:10042000007B000008142A142222142A1408AA00AF
:100430005500AAAA55AA55AA000000FF00101010E6
:10044000FF00141414FF001010FF00FF1010F01034
:10045000F0141414FC001414F700FF0000FF00FF58
:100460001414F404FC141417101F10101F101F1480
:1004700014141F00101010F0000000001F101010C6
:10048000101F10101010F010000000FF10101010BE
:100490001010101010FF10000000FF140000FF00EB
:1004A000FF00001F10170000FC04F41414171017AD
:1004B0001414F404F40000FF00F7141414141414BA
:1004C00014F700F7141414171410101F101F14142D
:1004D00014F4141010F010F000001F101F000000A2
:1004E0001F14000000FC140000F010F01010FF10AA
:1004F000FF141414FF141010101F00000000F0105F
:10050000FFFFFFFFFFF0F0F0F0F0FFFFFF00000043
:100510000000FFFF0F0F0F0F0F38444438447C2AB0
:100520002A3E147E02020606027E027E02635549BE
:1005300041633844443C04407E201E2006027E0273
:100540000299A5E7A5991C2A492A1C4C7201724CF4
:10055000304A4D4D303048784830BC625A463D3EB6
:10056000494949007E0101017E2A2A2A2A2A444457
:100570005F444440514A444040444A51400000FFD7
:100580000103E080FF000008086B6B083612362478
:1005900036060F090F0600001818000000101000A2
:1005A0003040FF0101001F01011E00191D1712003C
:1005B0003C3C3C3C00000000000810206002380079
:1005C00000000000000000000000FE00000000002D
:1005D000000E000E00000000D0BE90D0BE900000C3
:1005E0001C62FFC28000000C12924CB08806008092
:1005F0007C62B21CC0000000000E0E000000000073
:10060000E01804020200000002020418E0000000EA
:1006100024187E18240000808080F08080800000F4
:1006200000000000000000008080808000000000CA
:10063000000000000000000000806018060000F8C4
:1006400004C2320CF80000000404FE0000000000A8
:10065000028242221C00000002222222DC0000C092
:10066000A09884FE808000001E121222C20000F8B2
:1006700044222222C00000000202C2320A06000008
:100680008C5222528C00003C42424226F80000006C
:10069000003030000000000000303000000000801A
:1006A000804040202010004040404040400000106A
:1006B0002020404080800000028242221C00000076
:1006C0000000000000000000000005000000000025
:1006D000000000000000000007000007000000000C
:1006E00004040F04030000040201030404030003D4
:1006F00004040405030400000000000000000000E2
:100700000306081010000000101008060300000087
:1007100000000000000000000000070000000000D2
:1007200000160E00000000000000000000000000A5
:1007300000060600000000040201000000000001A5
:100740000304040201000000040407040400000084
:10075000070404040400000004040404030000006F
:10076000000000070000000004040404030000016E
:100770000204040403000000000700000000000061
:100780000304040403000000040404020100000048
:10079000000606000000000000160E000000000029
:1007A0000001010202040001010101010100000435
:1007B000020201010000000000050000000000F836
:1007C00004728AFA84780000C0380638C00000003D
:1007D000FE222222DC0000F804020202020000FED7
:1007E00002020204F8000000FE2222222200000081
:1007F000FE222222220000F804020222E20000FE71
:1008000020202020FE0000000202FE020200000064
:1008100000000202FE0000FE40B0080402000000DA
:10082000FE000000000000FE0C7080700CFE00FE58
:100830000C30C000FE0000F804020204F80000FEC4
:10084000424242221C0000F804020204F8000000A8
:10085000FE4242A21C0000001C2242428000000214
:100860000202FE02020200FE00000000FE0000067E
:1008700038C000C03806003EC0F00EF0C03E000098
:1008800006986098060000000618E01806000002AE
:1008900002C2320A0600000000FE0202020200004C
:1008A0000618608000000002020202FE0000004004
:1008B000300C0C304000000000000000000000017F
:1008C0000204040400000006010101010106000009
:1008D00007040404030000010204040404000007E8
:1008E00004040402010000000704040404000000E2
:1008F00007000000000000010204040407000007D4
:1009000000000000070000000404070404000000C9
:1009100004040404030000070000010204000000B6
:10092000070404040400000700000100000700079A
:100930000000000307000001020404020100000798
:10094000000000000000000102040C121110000061
:100950000700000106000000040404040300000076
:10096000000007000000000304040404030000006A
:100970000001060100000000070000000700000061
:10098000060100010600000000000700000000064C
:100990000504040404000000001F101010100000E3
:1009A00000000001020400101010101F00000000E1
:1009B0000000000000000008080808080800000007
:1009C0000002040000000000E0101010F000000021
:1009D000FE201010E0000000E010101010000000D9
:1009E000E0101010FE000000E0909090E000000089
:1009F00020FC222222020000E0101010F000000073
:100A0000FE201010E000001010F2000000000000B6
:100A1000101010F200000000FE80402010000000C6
:100A20000202FE00000000F02010F02010F0000094
:100A3000F0201010E0000000E0101010E0000000B6
:100A4000F0201010E0000000E0101010F000000096
:100A5000F0201010700000006090909020000000C6
:100A60002020FC2020200000F0000000F00000000A
:100A700070800080700000F000C030C000F0000006
:100A800030C0C0300000000030C0008070000000A6
:100A9000101090503000000080807E0202000000A4
:100AA0000000FE000000000002027E8080000000C6
:100AB00080800000008000000000000000000000B6
:100AC0000000000000000000030404020700000012
:100AD00007040404030000000304040404000000ED
:100AE00003040402070000000304040404000000DF
:100AF0000007000000000000332424221F00000033
:100B000007000000070000000007040400000020A8
:100B10002020201F00000000070001020400000048
:100B200000000704040000070000070000070000A1
:100B30000700000007000000030404040300000095
:100B40003F04040403000000030404023F0000000B
:100B5000070000000000000002040404030000007D
:100B60000000030404040000030404020700000062
:100B7000000304030000000106010001060100005B
:100B8000060101060000002020310E0300000000D5
:100B9000060504040400000000001F1010000000FF
:100BA000000007000000000010101F0000000001FE
:100BB0000000010101000000000000000000000032
:100BC000431011241FBECFEFD8E0DEBFCDBF12E02F
:100BD000A0E0B1E0ECEBF6E202C005900D92A83186
:100BE000B107D9F725E0A8E1B2E001C01D92A0321B
:100BF000B207E1F715E0C1EED5E004C02197FE0190
:100C00000E944213C03ED107C9F70E944B110C94B9
:100C10005C130C940000DC01ED91FC910190F081DB
:100C2000E02D0994DC01ED91FC910280F381E02D2F
:100C30000994DC01ED91FC910480F581E02D09948B
:100C4000DC01ED91FC910680F781E02D0994CF92B3
:100C5000DF92EF92FF920F931F93FC0173836283E5
:100C600055834483F782E682D186C0863387228704
:100C7000158704871F910F91FF90EF90DF90CF9021
:100C80000895FC0182819381248135816A3089F441
:100C9000868581113AC02F5F3F4F9089290F311D02
:100CA00042855385538342833583248391E096871D
:100CB00008956D3051F1478550E00196840F951FDE
:100CC00066817781DB01A41BB50BA817B907B8F4BF
:100CD00082859385408950E02F5F3F4F240F351F59
:100CE00061E0668760857185DB01A41BB50BA217E7
:100CF000B30728F4938382833583248306C09383C8
:100D000082833583248381E0089580E00895FC0187
:100D10008481848F8281858F8089868F8785878F64
:100D2000CF014C96089580E090E008952F923F9275
:100D30004F925F926F927F928F929F92AF92BF92EB
:100D4000CF92DF92EF92FF920F931F93CF93DF9397
:100D5000CDB7DEB72F970FB6F894DEBF0FBECDBF6D
:100D60009F878E87DC0151968C915197F62EF81A49
:100D700050968C9190E06C01B1E0CB1AD108D7FE6F
:100D800004C06C01E6E0CE0ED11C13E0D594C794EC
:100D90001A95E1F7C394AE85BF851F962C911F97D6
:100DA00030E040E050E054966D917D918D919C91A2
:100DB00057970E94151349015A0101E010E04F2C8A
:100DC000512C612C712C4A865B866C867D86D12CD9
:100DD000E12CF12C1801B1E02B1A3108EE85FF85CA
:100DE000F785F9834F2E512C58864F82AE85BF85EB
:100DF00050968C915097F89FC0011124880F991F2D
:100E00002816390608F09CC06F817885660F771F19
:100E1000C1010E9401137E836D835D8056945694B8
:100E2000569459866A857B858C859D85A50194019C
:100E30000E94151329013A019B01AC018981A82F59
:100E4000B0E00E943713EE85FF85A3899B01AC01BA
:100E50002A0F311D411D511D29833A834B835C8329
:100E6000A7019601C301B2010E94F1129B01AC01DE
:100E70004984240D311D411D511D64897589868960
:100E800097890E94F11249805A806B807C80460EBF
:100E9000571E681E791EB301A2012D813E813327A2
:100EA000319521953109220F331F6F807884269D5B
:100EB000C001279D900D369D900D1124820D931D2C
:100EC00096958795480F511D611D711D808D918DDF
:100ED000FC01E40FF51FE491F0E08D81798428EFA7
:100EE000729E800D112402C0F595E7958A95E2F770
:100EF000AE85BF855A968D919C915B97E0FF10C09F
:100F0000FC01E20DF31DBFEFB083AE85BF855A969D
:100F1000ED91FC915B97E00FF11FBFEFB0830DC027
:100F2000FC01E20DF31D1082AE85BF855A96ED914E
:100F3000FC915B97E00FF11F10820E5F1F4F4ACFAD
:100F40005A968D919C915B972F960FB6F894DEBFC1
:100F50000FBECDBFDF91CF911F910F91FF90EF900A
:100F6000DF90CF90BF90AF909F908F907F906F90C9
:100F70005F904F903F902F900895FC0120812EBDEF
:100F8000DC0131969C01260F371FE217F30741F071
:100F900051910DB407FEFDCF4EB55EBD4D93F5CF1B
:100FA00061507109FC01E60FF71F0DB407FEFDCF7C
:100FB0008EB58083089508958CBD9DBD08950895D4
:100FC00080E090E00895CF92DF92EF92FF920F932E
:100FD0001F93FC017383628355834483F782E68207
:100FE000D186C08633872287158704871F910F918A
:100FF000FF90EF90DF90CF900895DC01ED91FC9190
:101000000680F781E02D0994DC01ED91FC910480CC
:10101000F581E02D0994DC01ED91FC910280F381D2
:10102000E02D0994DC01ED91FC910190F081E02D1F
:101030000994FC0182819381248135816A3071F4A5
:10104000868581112DC042855385538342832B5F52
:101050003F4F3583248391E0968708956D3001F1E9
:10106000049646815781435051094817590790F417
:10107000828593852B5F3F4F41E0468740855185B0
:10108000445051094217530728F4938382833583D0
:10109000248306C0938382833583248381E008956B
:1010A00080E00895FC01848187A3828180A784E089
:1010B00081A783E082A7CF018796089580E090E022
:1010C0000895BF92CF92DF92EF92FF920F931F93FA
:1010D000CF93DF937C01EC016096E0E0F0E040E02C
:1010E00096E0C92ED12C062F10E0BB24BA94CF0174
:1010F000B6010E9401135AEF56039001579F300D1D
:1011000011242E0F3F1F36952795223010F44F5F84
:1011100002C0223081F0DE011197C801042E02C006
:10112000959587950A94E2F780FF03C0BC92B88238
:1011300002C01C92188232962296E831F105B9F667
:10114000C7010F96DF91CF911F910F91FF90EF9004
:10115000DF90CF90BF900895CF93DF93EC0164E1CF
:1011600070E080E090E00E946D0F60E08D810E9451
:10117000210F65E070E080E090E00E946D0F61E07B
:101180008D810E94210F68EC70E080E090E0DF919B
:10119000CF910C946D0F0F93FC0130E080E092E151
:1011A000AAE7B0E0481759076A077B0740F4B695ED
:1011B000A795979587953F5F3630A1F737E091E087
:1011C0009327222311F020E501C020E7892F86957F
:1011D0000C70082B022B0083917091830F9108955E
:1011E000AF92BF92CF92DF92EF92FF920F931F9335
:1011F000CF93DF9300D0CDB7DEB75C01DC0114964E
:101200006C93149715964C93159716962C931697E6
:1012100018961C930E931797FC01C186D286E3861D
:10122000F486E5EBF2E05196FC93EE9350978BE059
:1012300096E053969C938E93529782E196E0559652
:101240009C938E93549789E196E057969C938E9346
:10125000569780E296E059969C938E93589787E232
:1012600096E05B969C938E935A9713821282158216
:1012700014828FE790E09783868391878087138617
:1012800012861586148616968C910E94960EF5018C
:1012900085810E94960ED50114968C910E94960E1F
:1012A00061E0F50186810E94210F61E0D50115966C
:1012B0008C910E94210F61E0F50184810E94210F31
:1012C000D50119964D915D916D917C911C970CE023
:1012D00021E0CE0101960E94CB0889819A810E946B
:1012E000DC0761E070E080E090E00E94BD07C5018E
:1012F0000E94AC080F900F90DF91CF911F910F913A
:10130000FF90EF90DF90CF90BF90AF900895CF9275
:10131000DF92EF92FF920F931F93CF93DF9300D052
:10132000CDB7DEB78C016B017901642FFC0184819C
:101330000E94210FEFE0F0E03197F1F7F8014185CD
:101340005285638574850CE021E0CE0101960E94F0
:10135000CB0889819A810E94DC07E114F10421F015
:10136000B701C6010E94BD070F900F90DF91CF918A
:101370001F910F91FF90EF90DF90CF90089561E063
:10138000FC0186810C94210F60E0FC0186810C94A5
:10139000210F0F931F93CF93DF9300D01F92CDB7F0
:1013A000DEB78C0185E789836A834B83C8010E947D
:1013B000C40921E030E040E0BE016F5F7F4FC8010B
:1013C0000E94870922E030E041E0BE016E5F7F4F5E
:1013D000C8010E948709C8010E94BF090F900F90A1
:1013E0000F90DF91CF911F910F9108950F931F934D
:1013F000CF93DF9300D01F92CDB7DEB78C0185E18C
:1014000089836A834B83C8010E94C40921E030E0CC
:1014100040E0BE016F5F7F4FC8010E94870922E054
:1014200030E041E0BE016E5F7F4FC8010E94870936
:10143000C8010E94BF090F900F900F90DF91CF91CC
:101440001F910F910895AF92BF92CF92DF92EF92CA
:10145000FF920F931F93CF93DF9300D0CDB7DEB7EA
:101460008C01F62EDC015296ED91FC91539730974A
:10147000B1F41E962C911E9730E01D964C9150E0D1
:1014800085EB92E00E94960667E771E088E192E0C2
:101490000E94B50E6E01B2E0CB0ED11C0DC0DC0176
:1014A0001E962C911E971D964C911D9750968D91CE
:1014B0009C91519709956C01D8015496ED91FC913E
:1014C0005597309761F01E962C911E971D964C9162
:1014D0001D976F2D50968D919C9151970995D8012C
:1014E0005696ED91FC9157973097D1F48091B902BF
:1014F0008093D1028091B7028093D2028091C5027D
:101500008093D3028091C4028093D40268E871E092
:1015100088E192E00E94B50EFE0131965F010EC097
:10152000D8011E962C911E971D964C911D976F2DDC
:1015300050968D919C91519709955C01D8015896D0
:10154000ED91FC915997309769F41E962C911E9756
:1015500030E01D964C9150E06F2D85EB92E00E949B
:1015600041060DC0D8011E962C911E971D964C91D8
:101570001D976F2D50968D919C91519709958823B9
:1015800029F1F5016081E180F280B380462F4F0D93
:101590004150C8010E94C9094E2D4B0D41506E2D7E
:1015A000C8010E94F609C8010E94F10FC8010E94FB
:1015B000C409FB9C90011124220F331F41E0B601A6
:1015C000C8010E948709C8010E94BF0981E090E01C
:1015D0000F900F90DF91CF911F910F91FF90EF909F
:1015E000DF90CF90BF90AF900895AF92BF92CF920F
:1015F000DF92EF92FF920F931F93CF93DF93CDB7BC
:10160000DEB7C154D1090FB6F894DEBF0FBECDBF0F
:101610005C01822FD50114966C93149715964C9308
:10162000159716962C93169718961C930E9317974A
:10163000F501C186D286E386F486E5EBF2E05196A9
:10164000FC93EE9350972BE036E053963C932E9309
:10165000529722E136E055963C932E93549729E118
:1016600036E057963C932E93569720E236E05996F3
:101670003C932E93589727E236E05B963C932E934B
:101680005A9713821282158214822FE730E0378333
:1016900026833187208713861286158614860E943A
:1016A000960EF50185810E94960ED50114968C91B7
:1016B0000E94960E61E0F50186810E94210F61E093
:1016C000D50115968C910E94210F61E0F50184816E
:1016D0000E94210FD50119964D915D916D917C91DC
:1016E0001C970CE021E0CE0101960E94CB08898175
:1016F0009A810E94DC0761E070E080E090E00E9447
:10170000BD07C5010E94AC088DEF898382E18A8301
:10171000C5010E94C40921E030E040E0BE016F5FD6
:101720007F4FC5010E94870921E030E041E0BE0102
:101730006E5F7F4FC5010E948709C5010E94BF09E6
:101740008EEA8983C5010E94C40921E030E040E0AF
:10175000BE016F5F7F4FC5010E948709C5010E94CE
:10176000BF0983EB898380EB8A83C5010E94C4098A
:1017700021E030E040E0BE016F5F7F4FC5010E9475
:10178000870921E030E041E0BE016E5F7F4FC50177
:101790000E948709C5010E94BF098AEC89838FE3F3
:1017A0008A83C5010E94C40921E030E040E0BE0107
:1017B0006F5F7F4FC5010E94870921E030E041E063
:1017C000BE016E5F7F4FC5010E948709C5010E945F
:1017D000BF0982EA898310E41A83C5010E94C40903
:1017E00021E030E040E0BE016F5F7F4FC5010E9405
:1017F000870921E030E041E0BE016E5F7F4FC50107
:101800000E948709C5010E94BF0981EA89831A8263
:10181000C5010E94C40921E030E040E0BE016F5FD5
:101820007F4FC5010E94870921E030E041E0BE0101
:101830006E5F7F4FC5010E948709C5010E94BF09E5
:1018400080EA89831B8286E78A8301E0F5010787A6
:10185000C5010E94C40921E030E040E0BE016F5F95
:101860007F4FC5010E94870922E030E041E0BE01C0
:101870006E5F7F4FC5010E948709C5010E94BF09A5
:10188000D50192960C9381EC898388E88A8302E3E0
:101890000B838C83C5010E94C40921E030E040E045
:1018A000BE016F5F7F4FC5010E94870923E030E0D2
:1018B00041E0BE016E5F7F4FC5010E948709C501EF
:1018C0000E94BF0987EC89838FE08A83C5010E944B
:1018D000C40921E030E040E0BE016F5F7F4FC501E9
:1018E0000E94870921E030E041E0BE016E5F7F4F3A
:1018F000C5010E948709C5010E94BF0981EB898348
:101900000A83C5010E94C40921E030E040E0BE0125
:101910006F5F7F4FC5010E94870921E030E041E001
:10192000BE016E5F7F4FC5010E948709C5010E94FD
:10193000BF098FE3E0E0F1E0DE01119601900D9226
:101940008A95E1F788EB21968FAF2197C5010E9418
:10195000C40921E030E040E0BE01605C7F4FC5017A
:101960000E9487092FE330E041E0BE016F5F7F4FA7
:10197000C5010E948709C5010E94BF098BEB219612
:101980008FAF219787E122968FAF2297C5010E94E2
:10199000C40921E030E040E0BE01605C7F4FC5013A
:1019A0000E94870980E4E82EF12CEC0EFD1EBFEFAB
:1019B000EB1AFB0A21E030E041E0B701C5010E94CB
:1019C0008709C5010E94BF098EEB21968FAF219731
:1019D00085E022968FAF2297C5010E94C40921E0BD
:1019E00030E040E0BE01605C7F4FC5010E94870986
:1019F00021E030E041E0B701C5010E948709C5013F
:101A00000E94BF094FE560E2C5010E94F6094FE35D
:101A100060E0C5010E94C90986EA21968FAF21972F
:101A2000C5010E94C40921E030E040E0BE01605CD5
:101A30007F4FC5010E948709C5010E94BF098FEA37
:101A400021968FAF2197C5010E94C40921E030E0A3
:101A500040E0BE01605C7F4FC5010E948709C5015F
:101A60000E94BF0968EC70E080E090E00E946D0F7A
:101A7000C5010E94F10FF501158716878FEF9FEFC3
:101A800094A383A3CF5BDF4F0FB6F894DEBF0FBEE6
:101A9000CDBFDF91CF911F910F91FF90EF90DF901D
:101AA000CF90BF90AF900895CF92DF92EF92FF92C8
:101AB0000F931F93CF93DF936C017A018B01C0E0EA
:101AC000D0E0CE15DF0589F0D8016D918D01D601EA
:101AD000ED91FC910190F081E02DC6010995892BD3
:101AE00011F47E0102C02196ECCFC701DF91CF91A6
:101AF0001F910F91FF90EF90DF90CF900895FC0120
:101B0000538D448D252F30E0842F90E0821B930B62
:101B1000541710F0CF96089501970895FC01918D08
:101B2000828D981761F0828DDF01A80FB11D5D963F
:101B30008C91928D9F5F9F73928F90E008958FEFAD
:101B40009FEF0895FC01918D828D981731F0828D61
:101B5000E80FF11D858D90E008958FEF9FEF0895B8
:101B6000FC01918D228D892F90E0805C9F4F821B1C
:101B700091098F739927089588E192E00E94B00D32
:101B800021E0892B09F420E0822F0895FC01848D47
:101B9000DF01A80FB11DA35ABF4F2C91848D90E097
:101BA00001968F739927848FA689B7892C93A08972
:101BB000B1898C9180648C93938D848D981306C029
:101BC0000288F389E02D80818F7D80830895EF92D4
:101BD000FF920F931F93CF93DF93EC0181E0888FE7
:101BE0009B8D8C8D981305C0E889F989808185FDCE
:101BF00024C0F62E0B8D10E00F5F1F4F0F731127BF
:101C0000E02E8C8DE8120CC00FB607FCFACFE889E5
:101C1000F989808185FFF5CFCE010E94C60DF1CFF5
:101C20008B8DFE01E80FF11DE35AFF4FF0820B8F01
:101C3000EA89FB898081806207C0EE89FF89608321
:101C4000E889F98980818064808381E090E0DF9178
:101C5000CF911F910F91FF90EF900895CF93DF9355
:101C6000EC01888D8823C9F0EA89FB89808185FD94
:101C700005C0A889B9898C9186FD0FC00FB607FCF5
:101C8000F5CF808185FFF2CFA889B9898C9185FF36
:101C9000EDCFCE010E94C60DE7CFDF91CF91089521
:101CA00080E090E0892B29F00E94BC0D81110C94FA
:101CB000000008953FB7F8948091DA029091DB021A
:101CC000A091DC02B091DD0226B5A89B05C02F3F94
:101CD00019F00196A11DB11D3FBFBA2FA92F982F52
:101CE0008827820F911DA11DB11DBC01CD0142E0CD
:101CF000660F771F881F991F4A95D1F708950E9494
:101D000057136115710579F0FB0101900020E9F787
:101D10003197AF01461B570BDC01ED91FC9102801E
:101D2000F381E02D099480E090E0089590E0FC01BB
:101D3000EC55FF4F2491FC01E057FF4F849188231D
:101D400099F090E0880F991FFC01EA57FF4FA59189
:101D5000B491FC01E458FF4F859194918FB7F894AA
:101D6000EC91E22BEC938FBF08950F931F93CF93C9
:101D7000DF93EC010E94810E8C016BE971E0CE01D2
:101D80000E94810E800F911FDF91CF911F910F91C3
:101D900008951F920F920FB60F9211242F933F9325
:101DA0004F935F936F937F938F939F93AF93BF9363
:101DB000EF93FF9388E192E00E94C60DFF91EF91AF
:101DC000BF91AF919F918F917F916F915F914F9153
:101DD0003F912F910F900FBE0F901F9018951F925B
:101DE0000F920FB60F9211242F938F939F93EF931F
:101DF000FF93E0912802F09129028081E0912E0268
:101E0000F0912F0282FD12C09081809131028F5F8C
:101E10008F7320913202821751F0E0913102F0E08D
:101E2000E85EFD4F958F8093310201C08081FF9164
:101E3000EF919F918F912F910F900FBE0F901F9058
:101E4000189590E0FC01E859FF4F3491FC01EC55E6
:101E5000FF4F2491FC01E057FF4FE491EE2309F47A
:101E60003BC0332339F1333091F038F43130A9F0ED
:101E7000323001F584B58F7D12C0373091F03830A3
:101E8000A1F03430B9F4809180008F7D03C080913F
:101E900080008F77809380000DC084B58F7784BDDC
:101EA00009C08091B0008F7703C08091B0008F7D12
:101EB0008093B000F0E0EE0FFF1FE458FF4FA591B4
:101EC000B4918FB7F894EC91611103C020952E2343
:101ED00001C02E2B2C938FBF08958F929F92AF92AB
:101EE000BF92CF92DF92EF92FF926B017C010E9432
:101EF0005A0E4B015C01C114D104E104F104F1F06C
:101F00000E945A0EDC01CB0188199909AA09BB0964
:101F1000883E9340A105B10570F321E0C21AD108B3
:101F2000E108F10888EE880E83E0981EA11CB11C20
:101F3000C114D104E104F10419F7DDCFFF90EF9053
:101F4000DF90CF90BF90AF909F908F9008951F9299
:101F50000F920FB60F9211242F933F938F939F935D
:101F6000AF93BF938091D6029091D702A091D802EF
:101F7000B091D9023091D50223E0230F2D3720F400
:101F80000196A11DB11D05C026E8230F0296A11DD3
:101F9000B11D2093D5028093D6029093D702A093CF
:101FA000D802B093D9028091DA029091DB02A0911D
:101FB000DC02B091DD020196A11DB11D8093DA0211
:101FC0009093DB02A093DC02B093DD02BF91AF914E
:101FD0009F918F913F912F910F900FBE0F901F9067
:101FE00018950F931F93CF93DF931F92CDB7DEB752
:101FF0008C018CE58983C8010E94C40921E030E08E
:1020000040E0BE016F5F7F4FC8010E948709C80191
:102010000E94BF090F90DF91CF911F910F910895FA
:10202000CF93C0E080E090E0FC01E052FD4F1082D1
:102030001182029680389105B9F74FE36C2F8BED32
:1020400093E00E94C9094FE560E28BED93E00E94A6
:10205000F6098BED93E00E94F10F8BED93E00E9467
:10206000C40920E830E041E060EE72E08BED93E0DF
:102070000E9487098BED93E00E94BF09CF5FC034B7
:1020800089F6CF910895CF93E8E1F2E013821282AE
:1020900088EE93E0A0E0B0E084839583A683B783C5
:1020A00083E491E09183808385EC90E09587848739
:1020B00084EC90E09787868780EC90E0918B808B12
:1020C00081EC90E0938B828B82EC90E0958B848BFB
:1020D00086EC90E0978B868B118E128E138E148E69
:1020E000A5EBB2E015961C921E92149713961C92C3
:1020F0001E9212978FEF9FEF17969C938E931697D1
:1021000019969C938E9318971B961C921E921A9761
:102110001D961C921E921C972FE631E011963C935F
:102120002E93E8EBF0E05996FC93EE93589740E637
:1021300053E05B965C934E935A97C6E05396CC93CC
:1021400053971E961C921E97E4911F96EC931F972F
:10215000E9EBF0E0E4915096EC935097EAEBF0E075
:10216000E4915196EC935197EBEBF0E0E4915296A9
:10217000EC935297ECEBF0E06491EDEBF0E0E4913E
:102180004E2F50E0FA0174E6679FE00DF11D112417
:10219000AF01FF0F660B770B54964D935D936D93D4
:1021A0007C935797A0E0B5E015961C921E92149769
:1021B00013961C921E92129717969C938E931697C5
:1021C00019969C938E9318971B961C921E921A97A1
:1021D0001D961C921E921C9711963C932E93E9EB30
:1021E000F5E05996FC93EE93589720E034E05B9627
:1021F0003C932E935A975396CC9353971E961C92CA
:102200001E97E4911F96EC931F97EAEBF5E0E4919B
:102210005096EC935097EBEBF5E0E4915196EC93EC
:102220005197ECEBF5E0E4915296EC935297EDEB7D
:10223000F5E02491EEEBF5E0E4914E2F50E0FA0149
:1022400034E6239FE00DF11D1124AF01FF0F660B53
:10225000770B54964D935D936D937C935797EBED6D
:10226000F3E01382128221E631E031832083E0EB38
:10227000F3E01582148213821282978386839187FA
:102280008087138612861586148685E591E09183F2
:102290008083CF910895789484B5826084BD84B59D
:1022A000816084BD85B5826085BD85B5816085BD51
:1022B00080916E00816080936E0010928100809109
:1022C0008100826080938100809181008160809391
:1022D0008100809180008160809380008091B100B6
:1022E00084608093B1008091B00081608093B000E1
:1022F00080917A00846080937A0080917A00826075
:1023000080937A0080917A00816080937A00809136
:102310007A00806880937A001092C100E0912802D0
:10232000F091290282E08083E0912402F09125025D
:102330001082E0912602F09127028FEC80831092A8
:102340003002E0912C02F0912D0286E08083E09132
:102350002A02F0912B02808180618083E0912A0221
:10236000F0912B02808188608083E0912A02F091B5
:102370002B02808180688083E0912A02F0912B02F9
:1023800080818F7D8083CFB7F8948091DE028111A8
:1023900024C0EAE9F0E08491EEEAF0E09491E82FBD
:1023A000F0E0EE0FFF1FEA57FF4FA591B491EC91BB
:1023B000E92321F461E08AE00E94210F8AE00E9473
:1023C000960E8CB580618CBD8CB580648CBD8DE023
:1023D0000E94960E8BE00E94960E8091DE028F5F27
:1023E0008093DE02CFBF40E8C42E44E8D42E4EE1F5
:1023F000E42EF12C0FED12E024E042E063E08BEDDF
:1024000093E00E94F50A0E9410105BE0852E56E0D2
:10241000952E62E1A62E66E0B62EC9E1D6E070E206
:10242000472E76E0572EE7E22E2EE6E03E2EFFE71F
:102430006F2E712C6EE971E088E192E00E94B50E7A
:1024400085EB92E09093EC038093EB039092EE0384
:102450008092ED03B092F003A092EF03D093F203C9
:10246000C093F1035092F4034092F3033092F603C9
:102470002092F5031092B8021092B7021092BA029D
:102480001092B9027092BC026092BB027092BE02BE
:102490006092BD021092C0021092BF021092C2025E
:1024A0001092C1022FE3C22ED12C3FE5E32EF12C76
:1024B00000E010E020E230E040E050E060E270E058
:1024C0000E94270664EC71E08BED93E00E94B50E4C
:1024D00068EE73E080E090E00E946D0F0E941010A3
:1024E00061ED71E088E192E00E94B50E6BE971E068
:1024F00088E192E00E94810E80EB93E09093EC03E0
:102500008093EB0382E198E09093EE038093ED03D8
:102510008BE098E09093F0038093EF0384E098E0E1
:102520009093F2038093F1038DEF97E09093F4037F
:102530008093F30383EE97E09093F6038093F50383
:1025400020E230E040E050E060E270E080EB93E0B9
:102550000E94E30764EC71E08BED93E00E94B50EFE
:1025600068EE73E080E090E00E946D0F0E94101012
:1025700065EF71E088E192E00E94B50E80E095E0A1
:102580009093EC038093EB039092EE038092ED0323
:10259000B092F003A092EF03D093F203C093F10343
:1025A0005092F4034092F3033092F6032092F50325
:1025B00020E230E040E050E060E270E00E94270658
:1025C00064EC71E08BED93E00E94B50E68EE73E071
:1025D00080E090E00E946D0F0E9410100E94500E4B
:1025E00029CFDB018F939F930E943713BF91AF9147
:1025F000A29F800D911DA39F900DB29F900D11245D
:102600000895AA1BBB1B51E107C0AA1FBB1FA61739
:10261000B70710F0A61BB70B881F991F5A95A9F78B
:1026200080959095BC01CD010895A1E21A2EAA1BB8
:10263000BB1BFD010DC0AA1FBB1FEE1FFF1FA21772
:10264000B307E407F50720F0A21BB30BE40BF50B6F
:10265000661F771F881F991F1A9469F760957095F8
:10266000809590959B01AC01BD01CF0108950E941A
:102670004813A59F900DB49F900DA49F800D911DB0
:1026800011240895EE0FFF1F0590F491E02D099499
:10269000A29FB001B39FC001A39F700D811D1124A3
:1026A000911DB29F700D811D1124911D089581E02F
:0C26B00090E0F8940C945C13F894FFCFB9
:1026BC0002030405060708090A0B0C0D0E0F101176
:1026CC0012131517191B1D1F212325272A2D3033F3
:1026DC0036393C3F4245484C5054585C6064686CF9
:1026EC007074787D82878C91969BA0A5AAAFB4005C
:1026FC00000000E70D540D7F0D2E0EB00D8E0DA2B7
:10270C000D0000000061085E085208190800000066
:10271C0000230A540DE007DF07F50A0000000096BD
:10272C00069306870641064E756C6C20424D502070
:10273C00506F696E746572004E756C6C20667261B8
:10274C006D6520706F696E746572000D0A005072B1
:10275C00696E74696E6720746F20646973706C6144
:10276C007920776974682064656661756C7420667D
:10277C006F6E740048656C6C6F20776F726C64219F
:10278C00005072696E74696E6720746F206469738F
:10279C00706C61792077697468205152636F64653D
:1027AC00466F6E74005072696E74696E6720746F38
:1027BC0020646973706C617920776974682038784B
:0827CC00313620666F6E7400C7
:00000001FF
