:100000000C94DE020C9406030C9406030C94060375
:100010000C9406030C9406030C9406030C9406033C
:100020000C9406030C9406030C9406030C9406032C
:100030000C9406030C9406030C9406030C9406031C
:100040000C945B050C9406030C94A3040C947D049F
:100050000C9406030C9406030C9406030C940603FC
:100060000C9406030C940603000000080002010033
:100070000003040700000000000000000000000072
:10008000250028002B0000000000240027002A0083
:10009000040404040404040402020202020203032E
:1000A0000303030301020408102040800102040836
:1000B0001020010204081020050800FF0C4B00006E
:1000C0000000003E5B4F5B3E3E6B4F6B3E1C3E7C38
:1000D0003E1C183C7E3C181C577D571C1C5E7F5EE6
:1000E0001C00183C1800FFE7C3E7FF0018241800A5
:1000F000FFE7DBE7FF30483A060E2629792926403C
:100100007F050507407F05253F5A3CE73C5A7F3E67
:100110001C1C08081C1C3E7F14227F22145F5F00F9
:100120005F5F06097F017F006689956A6060606095
:100130006094A2FFA29408047E040810207E201080
:1001400008082A1C08081C2A08081E101010100C89
:100150001E0C1E0C30383E3830060E3E0E060000D7
:1001600000000000005F00000007000700147F147B
:100170007F14242A7F2A12231308646236495620EA
:10018000500008070300001C2241000041221C000F
:100190002A1C7F1C2A08083E0808008070300008CE
:1001A00008080808000060600020100804023E51A2
:1001B00049453E00427F4000724949494621414934
:1001C0004D331814127F1027454545393C4A49499B
:1001D0003141211109073649494936464949291E05
:1001E00000001400000040340000000814224114F4
:1001F00014141414004122140802015909063E4146
:100200005D594E7C1211127C7F494949363E41416D
:1002100041227F4141413E7F494949417F090909C6
:10022000013E414151737F0808087F00417F410032
:100230002040413F017F081422417F404040407FE1
:10024000021C027F7F0408107F3E4141413E7F092E
:100250000909063E4151215E7F091929462649496F
:10026000493203017F01033F4040403F1F204020AF
:100270001F3F4038403F63140814630304780403AD
:100280006159494D43007F4141410204081020005B
:100290004141417F040201020440404040400003CC
:1002A00007080020545478407F2844443838444498
:1002B0004428384444287F385454541800087E0990
:1002C0000218A4A49C787F0804047800447D4000B0
:1002D0002040403D007F1028440000417F40007CCA
:1002E000047804787C080404783844444438FC18C2
:1002F00024241818242418FC7C08040408485454A6
:10030000542404043F44243C4040207C1C204020D2
:100310001C3C4030403C44281028444C9090907C39
:100320004464544C4400083641000000770000004B
:100330004136080002010204023C2623263C1EA18D
:10034000A161123A4040207A3854545559215555EC
:10035000794121545478412155547840205455799D
:10036000400C1E527212395555555939545454592E
:1003700039555454580000457C410002457D4200E7
:1003800001457C40F0292429F0F0282528F07C54F0
:100390005545002054547C547C0A097F4932494910
:1003A00049323248484832324A4848303A4141217D
:1003B0007A3A42402078009DA0A07D3944444439D7
:1003C0003D4040403D3C24FF2424487E4943662B69
:1003D0002FFC2F2BFF0929F620C0887E090320540B
:1003E0005479410000447D413048484A3238404009
:1003F000227A007A0A0A727D0D19317D2629292F69
:1004000028262929292630484D4020380808080880
:1004100008080808382F10C8ACBA2F102834FA0082
:10042000007B000008142A142222142A1408AA00AF
:100430005500AAAA55AA55AA000000FF00101010E6
:10044000FF00141414FF001010FF00FF1010F01034
:10045000F0141414FC001414F700FF0000FF00FF58
:100460001414F404FC141417101F10101F101F1480
:1004700014141F00101010F0000000001F101010C6
:10048000101F10101010F010000000FF10101010BE
:100490001010101010FF10000000FF140000FF00EB
:1004A000FF00001F10170000FC04F41414171017AD
:1004B0001414F404F40000FF00F7141414141414BA
:1004C00014F700F7141414171410101F101F14142D
:1004D00014F4141010F010F000001F101F000000A2
:1004E0001F14000000FC140000F010F01010FF10AA
:1004F000FF141414FF141010101F00000000F0105F
:10050000FFFFFFFFFFF0F0F0F0F0FFFFFF00000043
:100510000000FFFF0F0F0F0F0F38444438447C2AB0
:100520002A3E147E02020606027E027E02635549BE
:1005300041633844443C04407E201E2006027E0273
:100540000299A5E7A5991C2A492A1C4C7201724CF4
:10055000304A4D4D303048784830BC625A463D3EB6
:10056000494949007E0101017E2A2A2A2A2A444457
:100570005F444440514A444040444A51400000FFD7
:100580000103E080FF000008086B6B083612362478
:1005900036060F090F0600001818000000101000A2
:1005A0003040FF0101001F01011E00191D1712003C
:1005B0003C3C3C3C000000000000A90C11241FBE84
:1005C000CFEFD8E0DEBFCDBF12E0A0E0B1E0E6EEB5
:1005D000FDE102C005900D92AC39B107D9F724E0D6
:1005E000ACE9B2E001C01D92AF35B207E1F712E00D
:1005F000CEEDD2E004C02197FE010E94D70ECD3D82
:10060000D107C9F70E94400D0C94F10E0C94000024
:10061000CF92DF92EF92FF920F931F93CF93DF93CE
:100620006C017A018B01C0E0D0E0CE15DF0589F0C6
:10063000D8016D918D01D601ED91FC910190F08171
:10064000E02DC6010995892B11F47E0102C0219687
:10065000ECCFC701DF91CF911F910F91FF90EF90E9
:10066000DF90CF900895FC01538D448D252F30E00D
:10067000842F90E0821B930B541710F0CF960895AF
:1006800001970895FC01918D828D981761F0828DFC
:10069000DF01A80FB11D5D968C91928D9F5F9F73B6
:1006A000928F90E008958FEF9FEF0895FC01918D58
:1006B000828D981731F0828DE80FF11D858D90E0C5
:1006C00008958FEF9FEF0895FC01918D228D892F62
:1006D00090E0805C9F4F821B91098F73992708954A
:1006E0008CE992E00E94640321E0892B09F420E068
:1006F000822F0895FC01848DDF01A80FB11DA35A3C
:10070000BF4F2C91848D90E001968F739927848F31
:10071000A689B7892C93A089B1898C9180648C9328
:10072000938D848D981306C00288F389E02D808113
:100730008F7D80830895EF92FF920F931F93CF9345
:10074000DF93EC0181E0888F9B8D8C8D981305C021
:10075000E889F989808185FD24C0F62E0B8D10E093
:100760000F5F1F4F0F731127E02E8C8DE8120CC006
:100770000FB607FCFACFE889F989808185FFF5CFAC
:10078000CE010E947A03F1CF8B8DFE01E80FF11D9F
:10079000E35AFF4FF0820B8FEA89FB8980818062E8
:1007A00007C0EE89FF896083E889F98980818064C8
:1007B000808381E090E0DF91CF911F910F91FF90B6
:1007C000EF900895CF93DF93EC01888D8823C9F0D3
:1007D000EA89FB89808185FD05C0A889B9898C914A
:1007E00086FD0FC00FB607FCF5CF808185FFF2CFE5
:1007F000A889B9898C9185FFEDCFCE010E947A033B
:10080000E7CFDF91CF91089580E090E0892B29F028
:100810000E94700381110C94000008953FB7F89472
:1008200080915E0390915F03A0916003B09161039A
:1008300026B5A89B05C02F3F19F00196A11DB11D3B
:100840003FBFBA2FA92F982F8827820F911DA11D76
:10085000B11DBC01CD0142E0660F771F881F991FB3
:100860004A95D1F708950E94EC0E6115710579F053
:10087000FB0101900020E9F73197AF01461B570BB0
:10088000DC01ED91FC910280F381E02D099480E080
:1008900090E008950F931F93CF93DF93EC010E9494
:1008A00035048C0161EA71E0CE010E943504800FAD
:1008B000911FDF91CF911F910F91089590E0FC015E
:1008C000EC55FF4F2491FC01E057FF4F84918823A2
:1008D00099F090E0880F991FFC01EA57FF4FA5910E
:1008E000B491FC01E458FF4F859194918FB7F8942F
:1008F000EC91E22BEC938FBF08951F920F920FB6ED
:100900000F9211242F933F934F935F936F937F9395
:100910008F939F93AF93BF93EF93FF938CE992E0F4
:100920000E947A03FF91EF91BF91AF919F918F91B8
:100930007F916F915F914F913F912F910F900FBEDB
:100940000F901F9018951F920F920FB60F921124BF
:100950002F938F939F93EF93FF93E091AC02F091CD
:10096000AD028081E091B202F091B30282FD12C02B
:1009700090818091B5028F5F8F732091B6028217AC
:1009800051F0E091B502F0E0E456FD4F958F809371
:10099000B50201C08081FF91EF919F918F912F91BE
:1009A0000F900FBE0F901F90189590E0FC01E85932
:1009B000FF4F3491FC01EC55FF4F2491FC01E057AF
:1009C000FF4FE491EE2309F43BC0332339F1333078
:1009D00091F038F43130A9F0323001F584B58F7DD3
:1009E00012C0373091F03830A1F03430B9F4809132
:1009F00080008F7D03C0809180008F77809380007E
:100A00000DC084B58F7784BD09C08091B0008F7709
:100A100003C08091B0008F7D8093B000F0E0EE0FB6
:100A2000FF1FE458FF4FA591B4918FB7F894EC9154
:100A3000611103C020952E2301C02E2B2C938FBF54
:100A400008958F929F92AF92BF92CF92DF92EF92D2
:100A5000FF926B017C010E940E044B015C01C114EA
:100A6000D104E104F104F1F00E940E04DC01CB0199
:100A700088199909AA09BB09883E9340A105B105C7
:100A800070F321E0C21AD108E108F10888EE880E5F
:100A900083E0981EA11CB11CC114D104E104F1042F
:100AA00019F7DDCFFF90EF90DF90CF90BF90AF9020
:100AB0009F908F9008951F920F920FB60F9211245E
:100AC0002F933F938F939F93AF93BF9380915A033C
:100AD00090915B03A0915C03B0915D033091590349
:100AE00023E0230F2D3720F40196A11DB11D05C071
:100AF00026E8230F0296A11DB11D20935903809370
:100B00005A0390935B03A0935C03B0935D038091C1
:100B10005E0390915F03A0916003B0916103019621
:100B2000A11DB11D80935E0390935F03A0936003AA
:100B3000B0936103BF91AF919F918F913F912F919E
:100B40000F900FBE0F901F901895CF92DF92EF92EB
:100B5000FF920F931F93CF93DF9300D0CDB7DEB7F3
:100B60008C016B017901642FFC0184810E94D50402
:100B7000EFE0F0E03197F1F7F801418552856385A8
:100B800074850CE021E0CE0101960E943F09898125
:100B90009A810E943C09E114F10421F0B701C601D9
:100BA0000E941D090E943B090F900F90DF91CF9189
:100BB0001F910F91FF90EF90DF90CF900895CF930A
:100BC000DF93EC0164E170E080E090E00E94210599
:100BD00060E08D810E94D50465E070E080E090E0E7
:100BE0000E94210561E08D810E94D50468EC70E0CF
:100BF00080E090E0DF91CF910C94210561E0FC0151
:100C000086810C94D50460E0FC0186810C94D504A7
:100C10000F931F93CF93DF9300D01F92CDB7DEB712
:100C20008C0185E789836A834B83C8010E94030690
:100C300021E030E040E0BE016F5F7F4FC8010E94BD
:100C4000A50522E030E041E0BE016E5F7F4FC801A4
:100C50000E94A505C8010E94FE050F900F900F90FD
:100C6000DF91CF911F910F9108950F931F93CF9311
:100C7000DF9300D01F92CDB7DEB78C0185E1898369
:100C80006A834B83C8010E94030621E030E040E004
:100C9000BE016F5F7F4FC8010E94A50522E030E0D2
:100CA00041E0BE016E5F7F4FC8010E94A505C801EB
:100CB0000E94FE050F900F900F90DF91CF911F9132
:100CC0000F9108958F929F92AF92BF92CF92DF9231
:100CD000EF920F93CF93DF9300D0CDB7DEB75C01D7
:100CE0004B01642F402F2A830E9408064E2D2A8133
:100CF000622FC5010E9435068CE58983C5010E94DB
:100D0000030621E030E040E0BE016F5F7F4FC50188
:100D10000E94A505C5010E94FE05C5010E940306AB
:100D2000960141E0B401C5010E94A505C5010E94DC
:100D3000FE050F900F90DF91CF910F91EF90DF9014
:100D4000CF90BF90AF909F908F9008958F929F9279
:100D5000AF92BF92CF92DF92EF92FF920F93CF9319
:100D6000DF9300D0CDB7DEB75C01062FDC015896CB
:100D7000ED91FC9159973097B1F41E962C911E97E6
:100D800030E01D964C9150E089E393E00E94F20719
:100D900067E772E08CE992E00E944A044E01B2E0FB
:100DA0008B0E911C0DC0DC011E962C911E971D967A
:100DB0004C911D9756968D919C91579709954C0192
:100DC000D5015A96ED91FC915B97309761F01E9694
:100DD0002C911E971D964C911D97602F56968D91C4
:100DE0009C9157970995D5015C96ED91FC915D9783
:100DF0003097D1F480913D038093550380913B035C
:100E00008093560380914903809357038091480350
:100E10008093580368E872E08CE992E00E944A04EB
:100E2000FE0131967F010EC0D5011E962C911E97B2
:100E30001D964C911D97602F56968D919C915797BA
:100E400009957C01D5015E96ED91FC915F973097F5
:100E500069F41E962C911E9730E01D964C9150E03F
:100E6000602F89E393E00E949D070DC0D5011E9677
:100E70002C911E971D964C911D97602F56968D9123
:100E80009C9157970995882391F0F7014081218122
:100E90000281E3800E9D60011124CC0CDD1CE20E6A
:100EA000EA94040F0150B401C5010E94620681E07A
:100EB00090E00F900F90DF91CF910F91FF90EF9006
:100EC000DF90CF90BF90AF909F908F900895DC01FE
:100ED000ED91FC910190F081E02D0994DC01ED9100
:100EE000FC910280F381E02D0994DC01ED91FC91ED
:100EF0000480F581E02D0994DC01ED91FC910680E0
:100F0000F781E02D0994CF92DF92EF92FF920F9339
:100F10001F93FC017383628355834483F782E682C7
:100F2000D186C08633872287158704871F910F914A
:100F3000FF90EF90DF90CF900895FC018281938124
:100F4000248135816A3089F4868581113AC02F5F0A
:100F50003F4F9089290F311D42855385538342832A
:100F60003583248391E0968708956D3051F147854C
:100F700050E00196840F951F66817781DB01A41BE9
:100F8000B50BA817B907B8F482859385408950E05E
:100F90002F5F3F4F240F351F61E0668760857185A5
:100FA000DB01A41BB50BA217B30728F4938382833C
:100FB0003583248306C0938382833583248381E031
:100FC000089580E00895FC018481848F8281858F5B
:100FD0008089868F8785878FCF014C96089580E022
:100FE00090E008952F923F924F925F926F927F927E
:100FF0008F929F92AF92BF92CF92DF92EF92FF9229
:101000000F931F93CF93DF93CDB7DEB72F970FB614
:10101000F894DEBF0FBECDBF9F878E87DC0151964F
:101020008C915197F62EF81A50968C9190E06C01A5
:10103000B1E0CB1AD108D7FE04C06C01E6E0CE0EB9
:10104000D11C13E0D594C7941A95E1F7C394AE85EB
:10105000BF851F962C911F9730E040E050E05496DA
:101060006D917D918D919C9157970E94AA0E490197
:101070005A0101E010E04F2C512C612C712C4A8652
:101080005B866C867D86D12CE12CF12C1801B1E0B9
:101090002B1A3108EE85FF85F785F9834F2E512CE9
:1010A00058864F82AE85BF8550968C915097F89F99
:1010B000C0011124880F991F2816390608F09CC01A
:1010C0006F817885660F771FC1010E94960E7E831F
:1010D0006D835D8056945694569459866A857B85B7
:1010E0008C859D85A50194010E94AA0E29013A01D3
:1010F0009B01AC018981A82FB0E00E94CC0EEE8547
:10110000FF85A3899B01AC012A0F311D411D511D93
:1011100029833A834B835C83A7019601C301B20103
:101120000E94860E9B01AC014984240D311D411D96
:10113000511D64897589868997890E94860E498028
:101140005A806B807C80460E571E681E791EB30144
:10115000A2012D813E813327319521953109220F3E
:10116000331F6F807884269DC001279D900D369D8A
:10117000900D1124820D931D96958795480F511D52
:10118000611D711D808D918DFC01E40FF51FE491AF
:10119000F0E08D81798428EF729E800D112402C0C9
:1011A000F595E7958A95E2F7AE85BF855A968D91BC
:1011B0009C915B97E0FF10C0FC01E20DF31DBFEFB7
:1011C000B083AE85BF855A96ED91FC915B97E00F99
:1011D000F11FBFEFB0830DC0FC01E20DF31D1082C3
:1011E000AE85BF855A96ED91FC915B97E00FF11F9C
:1011F00010820E5F1F4F4ACF5A968D919C915B973C
:101200002F960FB6F894DEBF0FBECDBFDF91CF9102
:101210001F910F91FF90EF90DF90CF90BF90AF9014
:101220009F908F907F906F905F904F903F902F9006
:101230000895089580E090E00895FC0120812EBD7E
:10124000DC0131969C01260F371FE217F30741F0AE
:1012500051910DB407FEFDCF4EB55EBD4D93F5CF58
:1012600061507109FC01E60FF71F0DB407FEFDCFB9
:101270008EB58083089508958CBD9DBD08950F930C
:10128000FC0130E080E092E1AAE7B0E0481759079E
:101290006A077B0740F4B695A795979587953F5FBA
:1012A0003630A1F737E091E09327222311F020E5B3
:1012B00001C020E7892F86950C70082B022B008334
:1012C000917091830F910895AF92BF92CF92DF9268
:1012D000EF92FF920F931F93CF93DF9300D0CDB780
:1012E000DEB75C01822FD50114966C931497159686
:1012F0004C93159716962C93169718961C930E934D
:101300001797F501C186D286E386F486E9E3F3E018
:101310005796FC93EE93569727E637E059963C9301
:101320002E9358972EE637E05B963C932E935A9770
:1013300025E737E05D963C932E935C972CE737E0EA
:101340005F963C932E935E9723E837E091963C930B
:101350002E93909713821282158214822FE730E029
:101360003783268331872087138612861586148655
:101370000E945E04F50185810E945E04D5011496E9
:101380008C910E945E0461E0F50186810E94D50483
:1013900061E0D50115968C910E94D50461E0F501BC
:1013A00084810E94D504D50119964D915D916D916E
:1013B0007C911C970CE021E0CE0101960E943F0930
:1013C00089819A810E943C0961E070E080E090E0B0
:1013D0000E941D09C5010E94DF050F900F90DF914B
:1013E000CF911F910F91FF90EF90DF90CF90BF9022
:1013F000AF9008959F92AF92BF92CF92DF92EF92FB
:10140000FF920F931F93CF93DF93CDB7DEB7C154F5
:10141000D1090FB6F894DEBF0FBECDBF5C01822F9D
:10142000D50114966C93149715964C9315971696B0
:101430002C93169718961C930E931797F501C18657
:10144000D286E386F486E9E3F3E05796FC93EE93C5
:10145000569727E637E059963C932E9358972EE6F9
:1014600037E05B963C932E935A9725E737E05D96DD
:101470003C932E935C972CE737E05F963C932E933A
:101480005E9723E837E091963C932E9390971382D2
:101490001282158214822FE730E03783268331874A
:1014A000208713861286158614860E945E04F50135
:1014B00085810E945E04D50114968C910E945E0481
:1014C00061E0F50186810E94D50461E0D5011596A1
:1014D0008C910E94D50461E0F50184810E94D504BD
:1014E000D50119964D915D916D917C911C970CE001
:1014F00021E0CE0101960E943F0989819A810E94D4
:101500003C0961E070E080E090E00E941D09C501A7
:101510000E94DF058DEF898382E18A83C5010E94E5
:10152000030621E030E040E0BE016F5F7F4FC50160
:101530000E94A50521E030E041E0BE016E5F7F4FD3
:10154000C5010E94A505C5010E94FE058EEA89839A
:10155000C5010E94030621E030E040E0BE016F5F5C
:101560007F4FC5010E94A505C5010E94FE0583EBC2
:10157000898380EB8A83C5010E94030621E030E065
:1015800040E0BE016F5F7F4FC5010E94A50521E0CD
:1015900030E041E0BE016E5F7F4FC5010E94A505AE
:1015A000C5010E94FE058AEC89831FE31A83C501E9
:1015B0000E94030621E030E040E0BE016F5F7F4FF4
:1015C000C5010E94A50521E030E041E0BE016E5F4B
:1015D0007F4FC5010E94A505C5010E94FE0582EA54
:1015E000898380E4982E9A82C5010E94030621E037
:1015F00030E040E0BE016F5F7F4FC5010E94A5054E
:1016000021E030E041E0BE016E5F7F4FC5010E94E6
:10161000A505C5010E94FE0581EA89831A82C501DC
:101620000E94030621E030E040E0BE016F5F7F4F83
:10163000C5010E94A50521E030E041E0BE016E5FDA
:101640007F4FC5010E94A505C5010E94FE0580EAE5
:1016500089831B8286E78A8301E0F5010787C5013C
:101660000E94030621E030E040E0BE016F5F7F4F43
:10167000C5010E94A50522E030E041E0BE016E5F99
:101680007F4FC5010E94A505C5010E94FE05D50139
:1016900098960C9381EC898388E88A8302E30B8314
:1016A0008C83C5010E94030621E030E040E0BE01CA
:1016B0006F5F7F4FC5010E94A50523E030E041E048
:1016C000BE016E5F7F4FC5010E94A505C5010E9446
:1016D000FE0587EC89838FE08A83C5010E9403069B
:1016E00021E030E040E0BE016F5F7F4FC5010E9406
:1016F000A50521E030E041E0BE016E5F7F4FC501EE
:101700000E94A505C5010E94FE0581EB89830A831D
:10171000C5010E94030621E030E040E0BE016F5F9A
:101720007F4FC5010E94A50521E030E041E0BE01E8
:101730006E5F7F4FC5010E94A505C5010E94FE0591
:101740008FE3ECE2F1E0DE01119601900D928A95B3
:10175000E1F788EB21968FAF2197C5010E94030620
:1017600021E030E040E0BE01605C7F4FC5010E9497
:10177000A5052FE330E041E0BE016F5F7F4FC5015B
:101780000E94A505C5010E94FE058BEB21968FAF37
:10179000219787E122968FAF2297C5010E94030609
:1017A00021E030E040E0BE01605C7F4FC5010E9457
:1017B000A50590E4E92EF12CEC0EFD1EBFEFEB1A0F
:1017C000FB0A21E030E041E0B701C5010E94A50518
:1017D000C5010E94FE058EEB21968FAF219785E013
:1017E00022968FAF2297C5010E94030621E030E0C8
:1017F00040E0BE01605C7F4FC5010E94A50521E06D
:1018000030E041E0B701C5010E94A505C5010E9475
:10181000FE054FE560E2C5010E9435064FE360E03A
:10182000C5010E94080686EA21968FAF2197C5015F
:101830000E94030621E030E040E0BE01605C7F4F83
:10184000C5010E94A505C5010E94FE058FEA2196EB
:101850008FAF2197C5010E94030621E030E040E0F0
:10186000BE01605C7F4FC5010E94A505C5010E94B5
:10187000FE0568EC70E080E090E00E94210580E2C7
:10188000F501808B118A828B138A8FE5848B158BEF
:1018900000A0F1A1E02D2FE3C22ED12C3FE5E32ED5
:1018A000F12C00E010E020E230E040E050E060E2A7
:1018B00070E0D50156968D919C9157970995F50149
:1018C000958696868FEF9FEF92A781A7CF5BDF4F1C
:1018D0000FB6F894DEBF0FBECDBFDF91CF911F9141
:1018E0000F91FF90EF90DF90CF90BF90AF909F90BF
:1018F0000895CF938CE992E00E946403892BD1F381
:101900008CE992E00E9442038837D1F78CE992E09B
:101910000E9442038153863330F4E82FF0E0E5590A
:10192000FE4FC08101C0C0E08CE992E00E944203FA
:101930008153863330F4E82FF0E0E559FE4F2081E3
:1019400001C020E030E1C39FC0011124822BCF9160
:101950000895ECE9F2E01382128288EE93E0A0E0B1
:10196000B0E084839583A683B78384E091E091837C
:10197000808385EC90E09587848784EC90E097875E
:10198000868780EC90E0918B808B81EC90E0938B4C
:10199000828B82EC90E0958B848B86EC90E0978B29
:1019A000868B118E128E138E148EA9E3B3E01596DA
:1019B0001C921E92149713961C921E9212978FEFF0
:1019C0009FEF17969C938E93169719969C938E93E0
:1019D00018971B961C921E921A971D961C921E9287
:1019E0001C9786E191E011969C938E93E8EBF0E0D2
:1019F0005996FC93EE93589784EE93E05B969C93F4
:101A00008E935A9786E053968C9353971E961C920A
:101A10001E97E4911F96EC931F97E9EBF0E0E49199
:101A20005096EC935097EAEBF0E0E4915196EC93EA
:101A30005197EBEBF0E0E4915296EC935297ECEB7C
:101A4000F0E08491EDEBF0E0E4914E2F50E0FA01EC
:101A500094E6899FE00DF11D1124AF01FF0F660B85
:101A6000770B54964D935D936D937C935797E4E376
:101A7000F4E01382128282E291E0918380830895E0
:101A8000789484B5826084BD84B5816084BD85B559
:101A9000826085BD85B5816085BD80916E00816065
:101AA00080936E001092810080918100826080930B
:101AB000810080918100816080938100809180000D
:101AC0008160809380008091B10084608093B10038
:101AD0008091B00081608093B00080917A00846032
:101AE00080937A0080917A00826080937A0080915E
:101AF0007A00816080937A0080917A008068809378
:101B00007A001092C100E091AC02F091AD0282E047
:101B10008083E091A802F091A9021082E091AA02CC
:101B2000F091AB0280E180831092B402E091B002A8
:101B3000F091B10286E08083E091AE02F091AF02B5
:101B4000808180618083E091AE02F091AF0280815C
:101B500088608083E091AE02F091AF02808180685E
:101B60008083E091AE02F091AF0280818F7D80830F
:101B7000CFB7F89480916203811124C0EAE9F0E0C4
:101B80008491EEEAF0E09491E82FF0E0EE0FFF1F71
:101B9000EA57FF4FA591B491EC91E92321F461E05C
:101BA0008AE00E94D5048AE00E945E048CB58061C0
:101BB0008CBD8CB580648CBD8DE00E945E048BE092
:101BC0000E945E04809162038F5F80936203CFBFA7
:101BD00020E8C22E24E8D22E2EE1E22EF12C03EED4
:101BE00013E024E042E063E084E394E00E94FA0919
:101BF000C0E080E090E0FC01ED59FC4F10821182C2
:101C0000029680389105B9F780E8C82ED12C9FE55F
:101C1000E92E0FE320E24C2F63E673E084E394E0C7
:101C20000E946206CF5FC03421F7C0904904E09063
:101C30004804009147042091460480E280934404C4
:101C400010924504D12CF12C10E030E0E0915404C6
:101C5000F091550440E050E060E270E080914A0469
:101C600090914B04099564EA71E084E394E00E944A
:101C70004A0469EB71E08CE992E00E944A048CE925
:101C800092E00E946403892BF1F18CE992E00E94BA
:101C900042038C36C1F58CE992E00E946403892BE3
:101CA00031F464ED71E08CE992E00E9435040E9409
:101CB000790C8CE992E00E946403892B31F46DEF7A
:101CC00071E08CE992E00E9435040E94790C8CE965
:101CD00092E00E946403892B31F466E272E08CE9A1
:101CE00092E00E9435040E94790C8CE992E00E94F7
:101CF0006403892B31F46EE472E08CE992E00E9477
:101D000035040E94790C0E940404B3CFDB018F9349
:101D10009F930E94CC0EBF91AF91A29F800D911D09
:101D2000A39F900DB29F900D11240895AA1BBB1B79
:101D300051E107C0AA1FBB1FA617B70710F0A61BCB
:101D4000B70B881F991F5A95A9F780959095BC01EC
:101D5000CD010895A1E21A2EAA1BBB1BFD010DC0E7
:101D6000AA1FBB1FEE1FFF1FA217B307E407F5074B
:101D700020F0A21BB30BE40BF50B661F771F881F27
:101D8000991F1A9469F760957095809590959B01BD
:101D9000AC01BD01CF0108950E94DD0EA59F900DFD
:101DA000B49F900DA49F800D911D11240895EE0FF6
:101DB000FF1F0590F491E02D0994A29FB001B39FFD
:101DC000C001A39F700D811D1124911DB29F700D44
:101DD000811D1124911D089581E090E0F8940C94E8
:061DE000F10EF894FFCFA4
:101DE600000000009B0308033303E203640342037D
:101DF600560300000000F207EF07E3079D07000007
:101E06000000A60608031A091909FA0902030405BF
:101E1600060708090A0B0C0D0E0F101112131517E1
:101E2600191B1D1F212325272A2D303336393C3F08
:101E36004245484C5054585C6064686C7074787DB8
:101E460082878C91969BA0A5AAAFB40102030405D4
:101E560006070809000000000000000A0B0C0D0E22
:101E66000F0000000000000000000000000000005D
:101E760000000000000000000000000A0B0C0D0E20
:101E86000F0D0A0057616974696E6720746F206CC4
:101E96006F616420646174610052656164792074C5
:101EA6006F2061636365707420636F6D6D616E642E
:101EB600733A2000456E74657220737461727458AB
:101EC60020285375626D69742077697468202730FD
:101ED600782720707265666978293A2000456E7405
:101EE60065722073746172745920285375626D6926
:101EF60074207769746820273078272070726566A9
:101F06006978293A2000456E746572207769647491
:101F16006820285375626D69742077697468202774
:101F260030782720707265666978293A2000456EF8
:101F36007465722068656967687420285375626DD8
:101F46006974207769746820273078272070726555
:101F5600666978293A20004E756C6C20424D5020F7
:101F6600506F696E746572004E756C6C2066726196
:0C1F76006D6520706F696E74657200006C
:00000001FF
