:100000000C94DE020C9406030C9406030C94060375
:100010000C9406030C9406030C9406030C9406033C
:100020000C9406030C9406030C9406030C9406032C
:100030000C9406030C9406030C9406030C9406031C
:100040000C94690B0C9406030C94B10A0C948B0A63
:100050000C9406030C9406030C9406030C940603FC
:100060000C9406030C940603000000080002010033
:100070000003040700000000000000000000000072
:10008000250028002B0000000000240027002A0083
:10009000040404040404040402020202020203032E
:1000A0000303030301020408102040800102040836
:1000B0001020010204081020050800FF0C4B00006E
:1000C0000000003E5B4F5B3E3E6B4F6B3E1C3E7C38
:1000D0003E1C183C7E3C181C577D571C1C5E7F5EE6
:1000E0001C00183C1800FFE7C3E7FF0018241800A5
:1000F000FFE7DBE7FF30483A060E2629792926403C
:100100007F050507407F05253F5A3CE73C5A7F3E67
:100110001C1C08081C1C3E7F14227F22145F5F00F9
:100120005F5F06097F017F006689956A6060606095
:100130006094A2FFA29408047E040810207E201080
:1001400008082A1C08081C2A08081E101010100C89
:100150001E0C1E0C30383E3830060E3E0E060000D7
:1001600000000000005F00000007000700147F147B
:100170007F14242A7F2A12231308646236495620EA
:10018000500008070300001C2241000041221C000F
:100190002A1C7F1C2A08083E0808008070300008CE
:1001A00008080808000060600020100804023E51A2
:1001B00049453E00427F4000724949494621414934
:1001C0004D331814127F1027454545393C4A49499B
:1001D0003141211109073649494936464949291E05
:1001E00000001400000040340000000814224114F4
:1001F00014141414004122140802015909063E4146
:100200005D594E7C1211127C7F494949363E41416D
:1002100041227F4141413E7F494949417F090909C6
:10022000013E414151737F0808087F00417F410032
:100230002040413F017F081422417F404040407FE1
:10024000021C027F7F0408107F3E4141413E7F092E
:100250000909063E4151215E7F091929462649496F
:10026000493203017F01033F4040403F1F204020AF
:100270001F3F4038403F63140814630304780403AD
:100280006159494D43007F4141410204081020005B
:100290004141417F040201020440404040400003CC
:1002A00007080020545478407F2844443838444498
:1002B0004428384444287F385454541800087E0990
:1002C0000218A4A49C787F0804047800447D4000B0
:1002D0002040403D007F1028440000417F40007CCA
:1002E000047804787C080404783844444438FC18C2
:1002F00024241818242418FC7C08040408485454A6
:10030000542404043F44243C4040207C1C204020D2
:100310001C3C4030403C44281028444C9090907C39
:100320004464544C4400083641000000770000004B
:100330004136080002010204023C2623263C1EA18D
:10034000A161123A4040207A3854545559215555EC
:10035000794121545478412155547840205455799D
:10036000400C1E527212395555555939545454592E
:1003700039555454580000457C410002457D4200E7
:1003800001457C40F0292429F0F0282528F07C54F0
:100390005545002054547C547C0A097F4932494910
:1003A00049323248484832324A4848303A4141217D
:1003B0007A3A42402078009DA0A07D3944444439D7
:1003C0003D4040403D3C24FF2424487E4943662B69
:1003D0002FFC2F2BFF0929F620C0887E090320540B
:1003E0005479410000447D413048484A3238404009
:1003F000227A007A0A0A727D0D19317D2629292F69
:1004000028262929292630484D4020380808080880
:1004100008080808382F10C8ACBA2F102834FA0082
:10042000007B000008142A142222142A1408AA00AF
:100430005500AAAA55AA55AA000000FF00101010E6
:10044000FF00141414FF001010FF00FF1010F01034
:10045000F0141414FC001414F700FF0000FF00FF58
:100460001414F404FC141417101F10101F101F1480
:1004700014141F00101010F0000000001F101010C6
:10048000101F10101010F010000000FF10101010BE
:100490001010101010FF10000000FF140000FF00EB
:1004A000FF00001F10170000FC04F41414171017AD
:1004B0001414F404F40000FF00F7141414141414BA
:1004C00014F700F7141414171410101F101F14142D
:1004D00014F4141010F010F000001F101F000000A2
:1004E0001F14000000FC140000F010F01010FF10AA
:1004F000FF141414FF141010101F00000000F0105F
:10050000FFFFFFFFFFF0F0F0F0F0FFFFFF00000043
:100510000000FFFF0F0F0F0F0F38444438447C2AB0
:100520002A3E147E02020606027E027E02635549BE
:1005300041633844443C04407E201E2006027E0273
:100540000299A5E7A5991C2A492A1C4C7201724CF4
:10055000304A4D4D303048784830BC625A463D3EB6
:10056000494949007E0101017E2A2A2A2A2A444457
:100570005F444440514A444040444A51400000FFD7
:100580000103E080FF000008086B6B083612362478
:1005900036060F090F0600001818000000101000A2
:1005A0003040FF0101001F01011E00191D1712003C
:1005B0003C3C3C3C0000000000000D1111241FBE1B
:1005C000CFEFD8E0DEBFCDBF11E0A0E0B1E0E2E4C4
:1005D000F4E202C005900D92A238B107D9F723E0EA
:1005E000A2E8B1E001C01D92A93CB207E1F712E018
:1005F000CEEDD2E004C02197FE010E941412CD3D41
:10060000D107C9F70E94BF0F0C941F120C94000071
:10061000DC01ED91FC910190F081E02D0994DC0169
:10062000ED91FC910280F381E02D0994DC01ED91C4
:10063000FC910480F581E02D0994DC01ED91FC91A1
:100640000680F781E02D0994CF92DF92EF92FF921E
:100650000F931F93DC01ED91FC910084F185E02D57
:1006600009951F910F91FF90EF90DF90CF90089523
:10067000CF92DF92EF92FF920F931F93FC0173834F
:10068000628355834483F782E682D186C0863387AE
:100690002287158704871F910F91FF90EF90DF90BD
:1006A000CF900895FC0182819381248135816A3045
:1006B00079F4868581112FC09089290F311D4285DB
:1006C0005385538342833583248391E0968708952D
:1006D00016866D3001F1478550E0840F951F6681C5
:1006E0007781DB01A41BB50BA817B907B0F482858D
:1006F0009385408950E0240F351F61E0668760854F
:100700007185DB01A41BB50BA217B30730F49383EB
:1007100082833583248380E00895938382833583A5
:10072000248381E00895FC018481848F8281858FF8
:100730008089868F8785878FCF014C96089580E0CA
:1007400090E008952F923F924F925F926F927F9226
:100750008F929F92AF92BF92CF92DF92EF92FF92D1
:100760000F931F93CF93DF93CDB7DEB72F970FB6BD
:10077000F894DEBF0FBECDBF9F878E87DC015196F8
:100780008C915197F62EF81A50968C9190E06C014E
:10079000B1E0CB1AD108D7FE04C06C01E6E0CE0E62
:1007A000D11C13E0D594C7941A95E1F7C394AE8594
:1007B000BF851F962C911F9730E040E050E0549683
:1007C0006D917D918D919C9157970E94D81149010F
:1007D0005A0101E010E04F2C512C612C712C4A86FB
:1007E0005B866C867D86D12CE12CF12C1801B1E062
:1007F0002B1A3108EE85FF85F785F9834F2E512C92
:1008000058864F82AE85BF8550968C915097F89F41
:10081000C0011124880F991F2816390608F0A1C0BD
:100820006F817885660F771FC1010E94B0117E83AA
:100830006D835D8056945694569459866A857B855F
:100840008C859D85A50194010E94D81129013A014A
:100850009B01AC018981A82FB0E00E940912EE85AE
:10086000FF85A3899B01AC012A0F311D411D511D3C
:1008700029833A834B835C83A7019601C301B201AC
:100880000E9494119B01AC014984240D311D411D2E
:10089000511D64897589868997890E9494114980C0
:1008A0005A806B807C80460E571E681E791EB301ED
:1008B000A2012D813E813327319521953109220FE7
:1008C000331F6F807884269DC001279D900D369D33
:1008D000900D1124820D931D96958795480F511DFB
:1008E000611D711D808D918DFC01E40FF51FE49158
:1008F000F0E08D81798428EF729E800D112402C072
:10090000F595E7958A95E2F7AE85BF855A968D9164
:100910009C915B97E0FF10C0FC01E20DF31D9196E6
:100920008C91919780835A96ED91FC915B97E00FA3
:10093000F11F90968C9111C0FC01E20DF31DAE8564
:10094000BF8593968C91939780835A96ED91FC91F5
:100950005B97E00FF11F92968C9180830E5F1F4F83
:1009600045CF5A968D919C915B972F960FB6F89430
:10097000DEBF0FBECDBFDF91CF911F910F91FF90D2
:10098000EF90DF90CF90BF90AF909F908F907F902F
:100990006F905F904F903F902F900895FC012081C1
:1009A0002EBDDC0131969C01260F371FE217F3079D
:1009B00041F051910DB407FEFDCF4EB55EBD4D9394
:1009C000F5CF61507109FC01E60FF71F0DB407FE6A
:1009D000FDCF8EB58083089508958CBD9DBD08958B
:1009E000089580E090E00895CF93DF93EC0164E1F7
:1009F00070E080E090E00E942F0B60E08D810E940B
:100A0000E30A65E070E080E090E00E942F0B61E077
:100A10008D810E94E30A68EC70E080E090E0DF9155
:100A2000CF910C942F0B0F93FC0130E080E092E10A
:100A3000AAE7B0E0481759076A077B0740F4B69564
:100A4000A795979587953F5F3630A1F737E091E0FE
:100A50009327222311F020E501C020E7892F8695F6
:100A60000C70082B022B0083917091830F910895D5
:100A7000AF92BF92CF92DF92EF92FF920F931F93AC
:100A8000CF93DF9300D0CDB7DEB75C01DC011496C5
:100A90006C93149715964C93159716962C9316975E
:100AA00018961C930E931797FC01C186D286E38695
:100AB000F4868FEF9FEF918B808BEAE2F2E05996FC
:100AC000FC93EE93589788E093E05B969C938E930B
:100AD0005A978FE093E05D969C938E935C9786E1A6
:100AE00093E05F969C938E935E978DE193E0919651
:100AF0009C938E93909784E293E093969C938E932D
:100B0000929713821282158214828FE790E0978366
:100B1000868391878087138612861586148616969B
:100B20008C910E94A00FF50185810E94A00FD50134
:100B300014968C910E94A00F61E0F50186810E94BD
:100B4000E30A61E0D50115968C910E94E30A61E009
:100B5000F50184810E94E30AD50119964D915D91BA
:100B60006D917C911C970CE021E0CE0101960E94D2
:100B7000130589819A810E94ED0461E070E0CE0145
:100B800001960E94CE04C5010E94F4040F900F90BC
:100B9000DF91CF911F910F91FF90EF90DF90CF9059
:100BA000BF90AF900895CF92DF92EF92FF920F9394
:100BB0001F93CF93DF9300D0CDB7DEB78C016B01CD
:100BC0007901642FFC0184810E94E30AEFE0F0E0E8
:100BD0003197F1F7F80141855285638574850CE002
:100BE00021E0CE0101960E94130589819A810E941D
:100BF000ED04E114F10421F0B701C6010E94CE0416
:100C00000F900F90DF91CF911F910F91FF90EF9078
:100C1000DF90CF90089561E0FC0186810C94E30A97
:100C200060E0FC0186810C94E30A8F929F92AF9260
:100C3000BF92CF92DF92EF920F93CF93DF9300D0CA
:100C4000CDB7DEB75C014B01642F402F2A830E9491
:100C5000B30B4E2D2A81622FC5010E94E00B8CE55B
:100C60008983C5010E94100621E030E040E0BE010A
:100C70006F5F7F4FC5010E94D305C5010E940B061F
:100C8000C5010E941006960141E0B401C5010E9411
:100C9000D305C5010E940B060F900F90DF91CF91F5
:100CA0000F91EF90DF90CF90BF90AF909F908F907B
:100CB0000895AF92BF92CF92DF92EF92FF920F937F
:100CC000CF93DF93EC01062FEA8DFB8D2E854D85AA
:100CD00030E050E0309729F48AE292E00E94A203CB
:100CE00003C0888D998D09955C01EE8DFF8D30973D
:100CF000A9F480912E028093460280912C02809369
:100D0000470280913A028093480280913902809391
:100D1000490296E4E92E92E0F92E09C02E8530E0D2
:100D20004D8550E0602F888D998D09957C01E8A153
:100D3000F9A12E854D8530E050E0602F309729F4E1
:100D40008AE292E00E94520303C0888D998D099532
:100D5000A114B104D1F0E114F104B9F0882391F0A9
:100D6000F701408121810281E3800E9D6001112401
:100D7000CC0CDD1CE20EEA94040F0150B501CE014B
:100D80000E94150681E090E000C0DF91CF910F91A5
:100D9000FF90EF90DF90CF90BF90AF9008959F921B
:100DA000AF92BF92CF92DF92EF92FF920F931F9379
:100DB000CF93DF93CDB7DEB7C254D1090FB6F89405
:100DC000DEBF0FBECDBF5C01822FD50114966C93A0
:100DD000149715964C93159716962C93169718966C
:100DE0001C930E931797F501C186D286E386F4868D
:100DF000EAE2F2E05996FC93EE93589728E033E04C
:100E00005B963C932E935A972FE033E05D963C938C
:100E10002E935C9726E133E05F963C932E935E978A
:100E20002DE133E091963C932E93909724E233E0AA
:100E300093963C932E93929713821282158214827A
:100E40002FE730E037832683318720871386128689
:100E5000158614860E94A00FF50185810E94A00FBF
:100E6000D50114968C910E94A00F61E0F501868156
:100E70000E94E30A61E0D50115968C910E94E30A75
:100E800061E0F50184810E94E30AD50119964D9134
:100E90005D916D917C911C970CE021E0CE01019653
:100EA0000E94130589819A810E94ED0461E070E03F
:100EB000CE018E5B9F4F0E94CE04C5010E94F404B8
:100EC0008DEF898382E18A83C5010E94100621E0AB
:100ED00030E040E0BE016F5F7F4FC5010E94D30547
:100EE00021E030E041E0BE016E5F7F4FC5010E940E
:100EF000D305C5010E940B068EEA8983C5010E94B5
:100F0000100621E030E040E0BE016F5F7F4FC50179
:100F10000E94D305C5010E940B0683EB898380EBF9
:100F20008A83C5010E94100621E030E040E0BE0146
:100F30006F5F7F4FC5010E94D30521E030E041E0A3
:100F4000BE016E5F7F4FC5010E94D305C5010E949F
:100F50000B068AEC89831FE31A83C5010E941006E1
:100F600021E030E040E0BE016F5F7F4FC5010E948D
:100F7000D30521E030E041E0BE016E5F7F4FC50147
:100F80000E94D305C5010E940B0682EA898380E492
:100F9000982E9A82C5010E94100621E030E040E0C0
:100FA000BE016F5F7F4FC5010E94D30521E030E095
:100FB00041E0BE016E5F7F4FC5010E94D305C501B0
:100FC0000E940B0681EA89831A82C5010E941006DD
:100FD00021E030E040E0BE016F5F7F4FC5010E941D
:100FE000D30521E030E041E0BE016E5F7F4FC501D7
:100FF0000E94D305C5010E940B0680EA89831B82EB
:1010000086E78A8301E0F5010787C5010E94100683
:1010100021E030E040E0BE016F5F7F4FC5010E94DC
:10102000D30522E030E041E0BE016E5F7F4FC50195
:101030000E94D305C5010E940B06D5019A960C9318
:1010400081EC898388E88A8302E30B838C83C50162
:101050000E94100621E030E040E0BE016F5F7F4F4C
:10106000C5010E94D30523E030E041E0BE016E5F80
:101070007F4FC5010E94D305C5010E940B0687EC76
:1010800089838FE08A83C5010E94100621E030E049
:1010900040E0BE016F5F7F4FC5010E94D30521E094
:1010A00030E041E0BE016E5F7F4FC5010E94D30575
:1010B000C5010E940B0681EB89830A83C5010E944A
:1010C000100621E030E040E0BE016F5F7F4FC501B8
:1010D0000E94D30521E030E041E0BE016E5F7F4F0A
:1010E000C5010E94D305C5010E940B068FE3E0E015
:1010F000F1E0DE01119601900D928A95E1F788EBFF
:1011000021968FAF2197C5010E94100621E030E0A3
:1011100040E0BE01605C7F4FC5010E94D3052FE314
:1011200030E041E0BE016F5F7F4FC5010E94D305F3
:10113000C5010E940B068BEB21968FAF219787E1AB
:1011400022968FAF2297C5010E94100621E030E061
:1011500040E0BE01605C7F4FC5010E94D30590E472
:10116000E92EF12CEC0EFD1EBFEFEB1AFB0A21E07D
:1011700030E041E0B701C5010E94D305C5010E94DE
:101180000B068EEB21968FAF219785E022968FAFCD
:101190002297C5010E94100621E030E040E0BE0128
:1011A000605C7F4FC5010E94D30521E030E041E043
:1011B000B701C5010E94D305C5010E940B064FE58A
:1011C00060E2C5010E94E00B4FE360E0C5010E94B0
:1011D000B30B86EA21968FAF2197C5010E941006B6
:1011E00021E030E040E0BE01605C7F4FC5010E941D
:1011F000D305C5010E940B06F501958696868FEAF8
:1012000021968FAF2197C5010E94100621E030E0A2
:1012100040E0BE01605C7F4FC5010E94D305C5015F
:101220000E940B0668EC70E080E090E00E942F0BBB
:1012300080E2D50152968C93529753961C92539705
:1012400054968C93549755961C9255978FE55696C5
:101250008C93569757961C9357979296ED91FC91C5
:1012600093972FE3C22ED12C3FE5E32EF12C00E023
:1012700010E020E230E040E050E060E270E058969C
:101280008D919C9159970995F501958696868FEFDA
:101290009FEF918B808BCE5BDF4F0FB6F894DEBF54
:1012A0000FBECDBFDF91CF911F910F91FF90EF90B7
:1012B000DF90CF90BF90AF909F900895CF92DF9234
:1012C000EF92FF920F931F93CF93DF936C017A01FC
:1012D0008B01C0E0D0E0CE15DF0589F0D8016D911B
:1012E0008D01D601ED91FC910190F081E02DC601B8
:1012F0000995892B11F47E0102C02196ECCFC7011C
:10130000DF91CF911F910F91FF90EF90DF90CF90E1
:101310000895FC01538D448D252F30E0842F90E0FB
:10132000821B930B541710F0CF96089501970895E0
:10133000FC01918D828D981761F0828DDF01A80FDD
:10134000B11D5D968C91928D9F5F9F73928F90E0FF
:1013500008958FEF9FEF0895FC01918D828D98176E
:1013600031F0828DE80FF11D858D90E008958FEFAB
:101370009FEF0895FC01918D228D892F90E0805C74
:101380009F4F821B91098F73992708958DE891E0F3
:101390000E94BA0921E0892B09F420E0822F0895E8
:1013A000FC01848DDF01A80FB11DA35ABF4F2C9102
:1013B000848D90E001968F739927848FA689B789D1
:1013C0002C93A089B1898C9180648C93938D848DAA
:1013D000981306C00288F389E02D80818F7D808379
:1013E0000895EF92FF920F931F93CF93DF93EC0139
:1013F00081E0888F9B8D8C8D981305C0E889F989D1
:10140000808185FD24C0F62E0B8D10E00F5F1F4FED
:101410000F731127E02E8C8DE8120CC00FB607FC5D
:10142000FACFE889F989808185FFF5CFCE010E9446
:10143000D009F1CF8B8DFE01E80FF11DE35AFF4F6C
:10144000F0820B8FEA89FB898081806207C0EE8978
:10145000FF896083E889F98980818064808381E0E5
:1014600090E0DF91CF911F910F91FF90EF90089541
:10147000CF93DF93EC01888D8823C9F0EA89FB893B
:10148000808185FD05C0A889B9898C9186FD0FC032
:101490000FB607FCF5CF808185FFF2CFA889B98907
:1014A0008C9185FFEDCFCE010E94D009E7CFDF916F
:1014B000CF91089580E090E0892B29F00E94C60921
:1014C00081110C94000008953FB7F8948091870132
:1014D00090918801A0918901B0918A0126B5A89BBD
:1014E00005C02F3F19F00196A11DB11D3FBFBA2FB6
:1014F000A92F982F8827820F911DA11DB11DBC0116
:10150000CD0142E0660F771F881F991F4A95D1F7DA
:1015100008950E941A121F920F920FB60F92112473
:101520002F933F934F935F936F937F938F939F93EB
:10153000AF93BF93EF93FF938DE891E00E94D009A2
:10154000FF91EF91BF91AF919F918F917F916F919B
:101550005F914F913F912F910F900FBE0F901F9071
:1015600018951F920F920FB60F9211242F938F93FD
:101570009F93EF93FF93E0919D01F0919E018081F5
:10158000E091A301F091A40182FD12C090818091AD
:10159000A6018F5F8F732091A701821751F0E09110
:1015A000A601F0E0E357FE4F958F8093A60101C09E
:1015B0008081FF91EF919F918F912F910F900FBE9E
:1015C0000F901F90189590E0FC01E859FF4F34915F
:1015D000FC01EC55FF4F2491FC01E057FF4FE491D3
:1015E000EE2309F43BC0332339F1333091F038F462
:1015F0003130A9F0323001F584B58F7D12C037301B
:1016000091F03830A1F03430B9F4809180008F7DB2
:1016100003C0809180008F77809380000DC084B5D7
:101620008F7784BD09C08091B0008F7703C080910F
:10163000B0008F7D8093B000F0E0EE0FFF1FE45804
:10164000FF4FA591B4918FB7F894EC91611103C04D
:1016500020952E2301C02E2B2C938FBF08958F929F
:101660009F92AF92BF92CF92DF92EF92FF926B0167
:101670007C010E94640A4B015C01C114D104E104A5
:10168000F104F1F00E94640ADC01CB018819990988
:10169000AA09BB09883E9340A105B10570F321E07A
:1016A000C21AD108E108F10888EE880E83E0981E7E
:1016B000A11CB11CC114D104E104F10419F7DDCF60
:1016C000FF90EF90DF90CF90BF90AF909F908F9062
:1016D00008951F920F920FB60F9211242F933F93EC
:1016E0008F939F93AF93BF938091830190918401D7
:1016F000A0918501B09186013091820123E0230FF2
:101700002D3720F40196A11DB11D05C026E8230F39
:101710000296A11DB11D20938201809383019093B5
:101720008401A0938501B0938601809187019091F7
:101730008801A0918901B0918A010196A11DB11D76
:101740008093870190938801A0938901B0938A01C7
:10175000BF91AF919F918F913F912F910F900FBEAD
:101760000F901F9018950F931F93CF93DF9300D086
:101770001F92CDB7DEB78C0185E789836A834B83DF
:10178000C8010E94100621E030E040E0BE016F5F1A
:101790007F4FC8010E94D30522E030E041E0BE0146
:1017A0006E5F7F4FC8010E94D305C8010E940B06DF
:1017B0000F900F900F90DF91CF911F910F9108958F
:1017C0000F931F93CF93DF9300D01F92CDB7DEB757
:1017D0008C0185E189836A834B83C8010E941006CE
:1017E00021E030E040E0BE016F5F7F4FC8010E9402
:1017F000D30522E030E041E0BE016E5F7F4FC801BB
:101800000E94D305C8010E940B060F900F900F9005
:10181000DF91CF911F910F9108952F923F924F9298
:101820005F926F927F928F929F92AF92BF92CF9270
:10183000DF92EF92FF920F931F93CF93DF9300D02D
:1018400000D000D0CDB7DEB78E83F62EB42EA22EF8
:10185000302E87FF03C081E01E8201C080E0B7FE0A
:1018600003C091E0B12C01C090E0F7FE03C021E07D
:10187000F12C01C020E0A7FC81C0911188C02E810D
:10188000B21614F4BE82B22EAF141CF48F2DFA2CB3
:10189000A82E81E08B0D9E81891B8D8321E02A0D6E
:1018A0002F19882E912C80E890E0B4010E94C41179
:1018B000FB01562F822F0E94A411282E8E9F802D6F
:1018C00011248983281B2A839D819E9F302D1124FA
:1018D000313808F030E8EE0FFF1FE89D3001E99D38
:1018E000700CF89D700C11244F2C512C5214E1F007
:1018F000E9E7F2E080E0831729F0108331828F5FFF
:101900003296F9CF6301EB2C0A2D2E81442D69E725
:1019100072E08EE492E03B835C830E941506539450
:101920005C81450E3B81E2CF2A818D81289F902DDD
:101930001124913808F090E8E9E7F2E080E0891797
:1019400029F0108331828F5F3296F9CF2A81822F5E
:1019500090E0880F991F889D6001899DD00C989D0B
:10196000D00C112449814F0DEB2C0A2D2E8169E7F3
:1019700072E08EE492E00E9415060CC0911104C042
:10198000211108C0A12C7BCF8823D1F303C0882369
:1019900009F475CF26960FB6F894DEBF0FBECDBF03
:1019A000DF91CF911F910F91FF90EF90DF90CF903B
:1019B000BF90AF909F908F907F906F905F904F906F
:1019C0003F902F900895CF92DF92EF920F93E9E727
:1019D000F2E05083418392E0C92ED12C2FE7E22E12
:1019E0000FE7282F462FBF018EE492E00E941506D4
:1019F0000F91EF90DF90CF90089587FD03C067FFB0
:101A00000C94E30C08955F926F927F928F929F9255
:101A1000AF92BF92CF92DF92EF92FF920F931F93FC
:101A2000CF93DF93C82ED62EF42EE901902E882E68
:101A3000840EA901882D0E94FD0CFF2021F1AC2C01
:101A4000AF18AE016D2D8A2D0E94FD0CED2CEF1804
:101A5000AE016E2D8C2D0E94FD0CBF2CBD0CAE0175
:101A60006B2D8C2D0E94FD0C002369F08E012D2D15
:101A7000482D6D2D8A2D0E940D0C2B2D4C2D6E2D79
:101A80008C2D0E940D0C81E090E05C01AF18B10834
:101A9000E12CEF1408F094C0E3948E2D90E01A141A
:101AA0001B042CF0880F991F8A0D9B1D0AC0FA9405
:101AB000880F991F8A0D9B1D22E0F29E80199109C3
:101AC00011245C012FEFA21AB20AFE1408F478C0A8
:101AD0005E2C5D0C6F2C6C0CAE01652D862D0E946A
:101AE000FD0C8C2C8F18AE01652D882D0E94FD0CED
:101AF0007D2C7E18AE01672D862D0E94FD0CAE0157
:101B0000672D882D0E94FD0C9920D1F18E01252D85
:101B1000462D652D882D0E940D0C272D462D672DF5
:101B2000882D0E940D0CFE1409F4B3CFAE015F2C7A
:101B30005D0C652D6E2C6C0C862D0E94FD0CAE018B
:101B4000652D8C2C8E18882D0E94FD0CAE017D2CED
:101B50007F18672D862D0E94FD0CAE01672D882D04
:101B60000E94FD0C8E01252D462D652D882D0E948D
:101B70000D0C272D462D672D882D0E940D0C89CF29
:101B8000FE1409F486CFAE018F2C8D0C682D6E2CBF
:101B90006C0C862D0E94FD0CAE01682D8C2C8E18CD
:101BA000882D0E94FD0CAE017D2C7F18672D862D9F
:101BB0000E94FD0CAE01672D882D0E94FD0C69CF9F
:101BC000DF91CF911F910F91FF90EF90DF90CF9019
:101BD000BF90AF909F908F907F906F905F9008958F
:101BE000BF92CF92DF92EF92FF920F931F93CF930A
:101BF000DF93D82FC62F142F7901423008F053C03D
:101C0000A9010E94FD0C112309F450C0BB24B39418
:101C1000BC0EA7016B2D8D2F0E94FD0CA7016B2D13
:101C20008D2F0E94FD0C1FEF1C0FA701612F8D2F20
:101C30000E94FD0CA701612F8D2F0E94FD0CCC246A
:101C4000C394CD0EA7016C2F8C2D0E94FD0CDD24BA
:101C5000DA94DD0EA7016C2F8D2D0E94FD0CA701DB
:101C60006C2F8C2D0E94FD0CA7016C2F8D2D0E94D6
:101C7000FD0C87012B2D4D2F6B2D8D2F0E940D0CF0
:101C80002C2F4D2F6C2F8D2F0E940D0C2C2F4C2D97
:101C90006C2F8D2D0E940D0C2C2F4C2D6C2F8D2D0B
:101CA0000E940D0C03C001E00E94030DDF91CF9153
:101CB0001F910F91FF90EF90DF90CF90BF9008950C
:101CC000CF92DF92EF92FF920F931F93CF93DF9308
:101CD00000D01F92CDB7DEB79C01932F363008F0AD
:101CE00095E0AE0191FF05C04D5F5F4FFE0131965B
:101CF00004C04F5F5F4FFE01339692FF05C0DA01CB
:101D0000AE014E5F5F4F02C0DE011296892F8670D2
:101D10009170811102C041F402C0992329F06E2F05
:101D20008F2FFD01A62FB82F8FEF8C93DA011C9215
:101D30003327911109C03A95829FA001839F500DCE
:101D400011249A013A9509C0829FA001839F500DEA
:101D5000112420E03FEF241B350BAFEFB0E00E94D1
:101D6000FA11C72ED82EE92EFF24DC01CB018150B9
:101D70009F4FAF4FBF4F8C0D9D1DAE1DBF1DA0834C
:101D800049812A818B81BFE18B9FC0011124EFEF34
:101D9000F0E0BF010E94C411162F110F110F110F97
:101DA00000E03FE3239FC0011124BF010E94C41142
:101DB0009B0155E0220F331F5A95E1F7022B132B9D
:101DC000AFE14A9FC0011124BF010E94C411C801A4
:101DD000862B972B0F900F900F90DF91CF911F9133
:101DE0000F91FF90EF90DF90CF9008956F927F92C8
:101DF0008F929F92AF92BF92CF92DF92EF92FF921B
:101E00000F931F93CF93DF93882EF62E922E622F7F
:101E10006F19C42FC81BC7FF04C0C19577247A94DB
:101E200002C077247394CC0FDD0B70E05E01A61A1C
:101E3000B70A6E2C6694CC24DD24C61AD70ACC0CC3
:101E4000DD1CF914C8F481E08E1530F0A8016F2D67
:101E5000882D0E94FD0C06C09801462D6F2D882DFF
:101E60000E94F00D1A141B041CF4870CAC0CBD1C52
:101E7000AC0EBD1EF394E5CFDF91CF911F910F9172
:101E8000FF90EF90DF90CF90BF90AF909F908F909A
:101E90007F906F9008956F927F928F929F92AF92F2
:101EA000BF92CF92DF92EF92FF920F931F93CF9347
:101EB000DF93F82E862E942E842F8F19C22FC61BE7
:101EC000C7FF04C0C19577247A9402C07724739425
:101ED000CC0FDD0B90E05E01A81AB90A6E2C669457
:101EE000CC24DD24C81AD90ACC0CDD1CF914C8F4A2
:101EF00081E08E1530F0A801682D8F2D0E94FD0C19
:101F000006C09801462D682D8F2D0E94F00D1A14E1
:101F10001B041CF4870CAC0CBD1CAC0EBD1EF39452
:101F2000E5CFDF91CF911F910F91FF90EF90DF9060
:101F3000CF90BF90AF909F908F907F906F900895BB
:101F400090E0FC01EC55FF4F2491FC01E057FF4F5E
:101F50008491882399F090E0880F991FFC01EA573B
:101F6000FF4FA591B491FC01E458FF4F85919491E6
:101F70008FB7F894EC91E22BEC938FBF089578948F
:101F800084B5826084BD84B5816084BD85B582607E
:101F900085BD85B5816085BD80916E00816080932F
:101FA0006E00109281008091810082608093810098
:101FB00080918100816080938100809180008160A8
:101FC000809380008091B10084608093B100809103
:101FD000B00081608093B00080917A00846080932B
:101FE0007A0080917A00826080937A0080917A00F2
:101FF000816080937A0080917A00806880937A0073
:102000001092C100E0919D01F0919E0182E08083D9
:10201000E0919901F0919A011082E0919B01F09179
:102020009C018FEC80831092A501E091A101F091B9
:10203000A20186E08083E0919F01F091A001808160
:1020400080618083E0919F01F091A0018081886090
:102050008083E0919F01F091A0018081806880835E
:10206000E0919F01F091A00180818F7D808340E10C
:1020700050E06DE671E08DE891E00E945E0942E07B
:1020800050E06EE771E08DE891E00E945E091FB7B5
:10209000F89480918B01811124C0EAE9F0E08491E9
:1020A000EEEAF0E09491E82FF0E0EE0FFF1FEA5720
:1020B000FF4FA591B491EC91E92321F461E08AE00E
:1020C0000E94E30A8AE00E94A00F8CB580618CBD5B
:1020D0008CB580648CBD8DE00E94A00F8BE00E94C7
:1020E000A00F80918B018F5F80938B011FBF80E8D1
:1020F000C82E84E8D82E8EE1E82EF12C0CE811E0F1
:1021000024E042E063E08EE492E00E94CF0600E02B
:1021100010E02FE34FE560E080E20E940D0C40915B
:102120005E0250915F0260E080E20E94E30C8EEF5D
:1021300093E00E94600EAC0161E081E20E94E30C3A
:1021400080E098EF90935F0280935E02E12C00E0C4
:1021500018EF23E049E360E085E20E944B0F88E33B
:1021600094E00E94600E8C01112794E0E92E2DE08E
:1021700049E36AE085E20E944B0F80ED92E00E9405
:10218000600E8C0120E04DE460E089E30E940D0CBC
:1021900080E798E00E94600E8C012DE240E269E148
:1021A00080E20E940D0C00EE1FEF2FE344E364E198
:1021B00084E30E940D0C2FE34FE564E18FE50E945C
:1021C0000D0C24E14FE564E184E30E940D0C2FE344
:1021D0004FE56FE384E30E940D0C00E21EEF2AE35B
:1021E0004AE569E189E30E940D0C84EC99E00E94C4
:1021F000600E00E09C014FE069E289E40E94030D5B
:102200008CE89AE00E94600E9C014AE069E289E451
:102210000E94F00D0E945A0AFDCFEDE8F1E0138212
:10222000128288EE93E0A0E0B0E084839583A683D9
:10223000B78383E491E09183808385EC90E0958778
:10224000848784EC90E09787868780EC90E0918B80
:10225000808B81EC90E0938B828B82EC90E0958B6D
:10226000848B86EC90E0978B868B118E128E138E6A
:10227000148EAAE2B2E085E591E011969C938E93CC
:10228000E8EBF0E05996FC93EE93589789E793E0DA
:102290005B969C938E935A9786E053968C935397B4
:1022A0008FEF9FEF91969C938E93909793961C92AD
:1022B0001E9292971E961C921E97E4911F96EC9385
:1022C0001F97E9EBF0E0E4915096EC935097EAEB1E
:1022D000F0E0E4915196EC935197EBEBF0E0E49150
:1022E0005296EC935297ECEBF0E08491EDEBF0E03A
:1022F000E4914E2F50E0FA0194E6899FE00DF11D24
:102300001124AF01FF0F660B770B54964D935D932D
:102310006D937C935797EEE4F2E01382128283E68A
:1023200091E0918380830895DB018F939F930E94B6
:102330000912BF91AF91A29F800D911DA39F900D97
:10234000B29F900D11240895991B79E004C0991F44
:10235000961708F0961B881F7A95C9F780950895FF
:10236000AA1BBB1B51E107C0AA1FBB1FA617B707BB
:1023700010F0A61BB70B881F991F5A95A9F78095D7
:102380009095BC01CD01089597FB072E16F400949B
:1023900007D077FD09D00E94B01107FC05D03EF4AC
:1023A000909581959F4F0895709561957F4F089501
:1023B000A1E21A2EAA1BBB1BFD010DC0AA1FBB1F49
:1023C000EE1FFF1FA217B307E407F50720F0A21BBB
:1023D000B30BE40BF50B661F771F881F991F1A9428
:1023E00069F760957095809590959B01AC01BD0152
:1023F000CF010895A29FB001B39FC001A39F700DAC
:10240000811D1124911DB29F700D811D1124911DFC
:1024100008950E94FA11A59F900DB49F900DA49F5E
:10242000800D911D11240895EE0FFF1F0590F4916A
:10243000E02D099481E090E0F8940C941F12F89438
:02244000FFCFCC
:1024420002030405060708090A0B0C0D0E0F1011F2
:1024520012131517191B1D1F212325272A2D30336F
:1024620036393C3F4245484C5054585C6064686C75
:102472007074787D82878C91969BA0A5AAAFB400D8
:10248200000000F1095E098909380ABA099809AC05
:102492000900000000A2039F0393035203380300C4
:1024A20000000059065E09F104F004CF0645786188
:1024B2006D706C65345F44726177696E67000D0AF6
:0224C200000018
:00000001FF
